:10000000F8FF002011040000112C0000112C00004A
:10001000112C0000112C0000112C0000112C0000EC
:10002000112C0000112C0000112C0000112C0000DC
:10003000112C0000112C0000112C0000112C0000CC
:10004000112C0000112C0000112C0000112C0000BC
:10040000FFFFFFFFFFFFFFFFFFFFFFFFFEFFFFFFFD
:1004100062B606F051FDFEE710B5DFF8F82C0021BA
:10042000372001F04CFFDFF8F02C0121142001F0FF
:1004300046FFD3A20221142001F041FFDFF8DC2C9B
:100440000321142001F03BFFDFF8D42C0421052008
:1004500001F035FFDFF8D02C0521012001F02FFF3E
:10046000DFF8C82C0621012001F029FFDFF8C02C9D
:1004700007210A2001F023FF01F090FCC1A2DFF860
:10048000380D00680100C9B2462001F018FFDFF8FE
:100490002C0D007800282BD1DFF8240D00780128DE
:1004A00026D1B9A2DFF8100D00680100C9B24620BC
:1004B00001F005FFDFF8000D0068401CDFF8F81CB4
:1004C0000860B0A2DFF8F00C00680100C9B2462055
:1004D00001F0F5FEDFF8E00C0068082808D1AAA2B8
:1004E0000721462001F0EBFE0120DFF8CC1C08605C
:1004F000DFF8D00C007800282BD1DFF8CC0C007886
:10050000012826D1A0A2DFF8B00C00680100C9B212
:10051000462001F0D4FEDFF8A00C0068401EDFF892
:10052000981C0860DFF8900C0068002808D196A29B
:100530000121462001F0C3FE0720DFF87C1C086083
:1005400090A2DFF8740C00680100C9B2462001F0E7
:10055000B6FEDFF8640C0068012840F07C81DFF80B
:10056000700C0078002840F07681DFF8680C007885
:10057000012840F0708101F07BFEDFF89C2B002108
:10058000322001F09CFEDFF8502C01210A2001F0FE
:1005900096FEDFF8482C02210A2001F090FE01F0BF
:1005A00097FC01F0FBFBDFF8380C026812B2012166
:1005B0005F2001F0EFFEDFF82C0C026812B202217E
:1005C0005F2001F0E7FE6FA2DFF81C0C006801005D
:1005D000C9B2412001F073FEDFF8E00B007800287B
:1005E0002BD1DFF8DC0B0078012826D166A2DFF8DA
:1005F000F80B00680100C9B2412001F060FEDFF88D
:10060000E80B0068401CDFF8E01B08605DA2DFF823
:10061000D80B00680100C9B2412001F050FEDFF89C
:10062000C80B0068032808D157A20321412001F01C
:1006300046FE0120DFF8B01B0860DFF8880B007869
:1006400000282CD1DFF8800B0078012827D14EA29A
:10065000DFF8940B00680100C9B2412001F02FFEC1
:10066000DFF8840B0068401EDFF87C1B0860DFF8B1
:10067000780B0068002809D143A20121412001F034
:100680001EFE0220DFF8601B086008E03DA2DFF8D4
:10069000580B00680100C9B2412001F010FEDFF8DC
:1006A000480B0068012859D1DFF8240B0078002896
:1006B00054D1DFF8200B007801284FD162A2DFF877
:1006C000280B00680100C9B2412001F0F8FD01F0DB
:1006D000FFFB01F063FBDFF8EC0A007800280BD188
:1006E000DFF8E40A0078012806D1DFF8F40A006890
:1006F000401DDFF8EC1A0860DFF8C00A0078002817
:100700000BD1DFF8BC0A0078012806D1DFF8D00A47
:100710000068401FDFF8C81A0860DFF8C40A0268E2
:1007200012B201215F2001F035FEDFF8CC0C007819
:10073000002810D1DFF8C40C007801280BD143A2A7
:10074000DFF8A40A00680100C9B2412001F0B7FD3A
:1007500001F0BEFB02E001F0BBFBBAE7DFF8880A5C
:100760000068022861D1DFF8680A007800285CD1AF
:10077000DFF8600A0078012857D133A206E000BFF5
:10078000504944002A00000020000000DFF8580A09
:1007900000680100C9B2412001F091FD01F098FB11
:1007A00001F0FCFADFF81C0A007800280BD1DFF812
:1007B000180A0078012806D1DFF8280A0068401DD1
:1007C000DFF8201A0860DFF8F409007800280BD160
:1007D000DFF8EC090078012806D1DFF8080A006884
:1007E000401FDFF8001A0860DFF8F809026812B24B
:1007F00002215F2001F0CEFDDFF8FC0B007800281D
:1008000010D1DFF8F80B007801280BD10FA2DFF828
:10081000D80900680100C9B2412001F050FD01F083
:1008200057FB02E001F054FBBAE7DFF8CC0B00788D
:1008300000280DD1DFF8C40B0078012808D101F0A1
:1008400017FD01F045FB06E02D3E000020200000D2
:1008500001F03EFBA5E6DFF860090068022840F0E1
:10086000C984DFF86C090078002840F0C384DFF801
:1008700064090078012840F0BD8401F0F9FCDCA295
:100880000021322001F01BFDDFF8742B0121012033
:1008900001F015FDDFF86C2B0221012001F00FFDA6
:1008A000DFF8642B0321012001F009FDDFF85C2B48
:1008B0000421012001F003FDDFF8542B0521012064
:1008C00001F0FDFCDFF84C2B0621012001F0F7FCC4
:1008D000DFF8442B0721012001F0F1FC01F0F8FAC8
:1008E000DFF8380B0068DFF8381B01F003FE01F079
:1008F0006DFE020012B201215A2001F04BFDDFF81B
:10090000240B0068DFF8181B01F0F4FD01F05EFE17
:10091000020012B202215A2001F03CFDDFF8280D3E
:100920000068DFF8FC1A01F0E5FD01F04FFE02005F
:1009300012B203215A2001F02DFDDFF8100D0068DE
:10094000DFF8DC1A01F0D6FD01F040FE020012B221
:1009500004215A2001F01EFDDFF8F80C0068DFF8D2
:10096000C01A01F0C7FD01F031FE020012B20521EC
:100970005A2001F00FFDDFF8EC0C0068DFF8A01A38
:1009800001F0B8FD01F022FE020012B206215A2049
:1009900001F000FDDFF8DC0C0068DFF8841A01F0DC
:1009A000A9FD01F013FE020012B207215A2001F046
:1009B000F1FC01F0F3F9B6A2DFF8BC0C006801000D
:1009C000C9B2462001F07BFCDFF8F0070078002870
:1009D0002BD1DFF8EC070078012826D1ADA2DFF893
:1009E000980C00680100C9B2462001F068FCDFF8ED
:1009F000880C0068401CDFF8801C0860A4A2DFF8A7
:100A0000780C00680100C9B2462001F058FCDFF8FC
:100A1000680C0068082808D19EA20721462001F032
:100A20004EFC0120DFF8501C0860DFF898070078C2
:100A300000282BD1DFF890070078012826D195A255
:100A4000DFF8340C00680100C9B2462001F037FC21
:100A5000DFF8240C0068401EDFF81C1C0860DFF87B
:100A6000180C0068002808D18AA20121462001F054
:100A700026FC0720DFF8001C086085A2DFF8F80BD1
:100A800000680100C9B2462001F019FCDFF8E80B4C
:100A90000068012872D1DFF83807007800286DD18E
:100AA000DFF830070078012868D1BAA2DFF8C80B58
:100AB00000680100C9B2462001F001FC01F008FA0B
:100AC00001F06CF9DFF8FC060078002814D1DFF89B
:100AD000F806007801280FD1DFF84009006801F01E
:100AE0008BFDDFF8A02BDFF8A03B01F0A9FD01F0A2
:100AF00063FEDFF828190860DFF8C00600780028D8
:100B000014D1DFF8BC06007801280FD1DFF80C09FA
:100B1000006801F071FDDFF86C2BDFF8703B01F02D
:100B20008FFD01F049FEDFF8F4180860DFF8EC08EB
:100B30000168DFF8EC0801F0DDFC01F047FD020080
:100B400012B201215A2001F025FCDFF8AC08007830
:100B5000002810D1DFF8A408007801280BD1BCA22E
:100B6000DFF8140B00680100C9B2462001F0A7FBB2
:100B700001F0AEF902E001F0ABF9A1E7DFF8F80A05
:100B80000068022876D1DFF848060078002871D185
:100B9000DFF84006007801286CD17EA2DFF8D80A81
:100BA00000680100C9B2462001F089FB01F090F90C
:100BB00001F0F4F8DFF80C060078002814D1DFF813
:100BC0000806007801280FD1DFF85808006801F006
:100BD00013FDDFF8B02ADFF8B03A01F031FD01F083
:100BE000EBFDDFF840180860DFF8D00502E000BF39
:100BF000504944000078002814D1DFF8C40500787B
:100C000001280FD1DFF81C08006801F0F5FCDFF8BF
:100C1000742ADFF8783A01F013FD01F0CDFDDFF81A
:100C200004180860DFF8FC070168DFF8F40701F03A
:100C300061FC01F0CBFC020012B202215A2001F04B
:100C4000A9FBDFF8B4070078002810D1DFF8AC0763
:100C5000007801280BD17EA2DFF81C0A0068010091
:100C6000C9B2462001F02BFB01F032F902E001F09D
:100C70002FF99DE7DFF8000A0068032878D1DFF834
:100C800050050078002873D1DFF8480504E000BF64
:100C90002A000000200000000078012868D13DA251
:100CA000DFF8D40900680100C9B2462001F007FB53
:100CB00001F00EF901F072F8DFF80805007800285D
:100CC00014D1DFF80405007801280FD1DFF8780986
:100CD000006801F091FCDFF8AC29DFF8AC3901F0D5
:100CE000AFFC01F069FDDFF860190860DFF8CC04A3
:100CF0000078002814D1DFF8C804007801280FD14B
:100D0000DFF84409006801F077FCDFF87829DFF8A4
:100D10007C3901F095FC01F04FFDDFF82C190860DB
:100D2000DFF824090168DFF8F80601F0E3FB01F0C1
:100D30004DFC020012B203215A2001F02BFBDFF818
:100D4000B8060078002810D1DFF8B0060078012836
:100D50000BD13FA2DFF8200900680100C9B246208C
:100D600001F0ADFA01F0B4F802E001F0B1F8A1E74A
:100D7000DFF80409006804287AD1DFF85404007809
:100D8000002875D1DFF84C040078012870D101A249
:100D900002E000BF2D3E0000DFF8DC080068010023
:100DA000C9B2462001F08BFA01F092F800F0F6FF8C
:100DB000DFF810040078002814D1DFF80C04007864
:100DC00001280FD1DFF88408006801F015FCDFF876
:100DD000B428DFF8B43801F033FC01F0EDFCDFF8A3
:100DE0006C180860DFF8D4030078002814D1DFF80D
:100DF000D003007801280FD1DFF85008006801F017
:100E0000FBFBDFF88028DFF8843801F019FC01F0E3
:100E1000D3FCDFF838180860DFF830080168DFF825
:100E2000000601F067FB01F0D1FB020012B20421C1
:100E30005A2001F0AFFADFF8C0050078002814D17D
:100E4000DFF8B805007801280FD101A202E000BF49
:100E500020200000DFF8200800680100C9B2462009
:100E600001F02DFA01F034F802E001F031F89DE7CD
:100E7000DFF80408006805286ED1DFF85403007815
:100E8000002869D1DFF84C030078012864D1A5A2BD
:100E9000DFF8E40700680100C9B2462001F00FFA4C
:100EA00001F016F800F07AFFC6480078002813D148
:100EB000C548007801280FD1DFF89807006801F0D5
:100EC0009BFBDFF8C027DFF8C03701F0B9FB01F06A
:100ED00073FCDFF880170860B8480078002813D149
:100EE000B748007801280FD1DFF86807006801F0E3
:100EF00083FBDFF89027DFF8943701F0A1FB01F0C6
:100F00005BFCDFF850170860DFF848070168DFF87E
:100F1000100501F0EFFA01F059FB020012B20521B1
:100F20005A2001F037FADFF8D0040078002810D1F9
:100F3000DFF8C804007801280BD1A4A2DFF8380735
:100F400000680100C9B2462001F0B9F900F0C0FF05
:100F500002E000F0BDFFA5E7DFF81C0700680628E7
:100F60006CD19B480078002868D19A480078012805
:100F700064D16CA2DFF8000700680100C9B2462006
:100F800001F09DF900F0A4FF00F008FF8D48007803
:100F9000002813D18C48007801280FD1DFF8C4064F
:100FA000006801F029FBDFF8DC26DFF8DC3601F011
:100FB00047FB01F001FCDFF8AC1608607F480078C1
:100FC000002813D17E48007801280FD1DFF894065D
:100FD000006801F011FBDFF8AC26DFF8B03601F055
:100FE0002FFB01F0E9FBDFF87C160860DFF87406E0
:100FF0000168DFF82C0401F07DFA01F0E7FA020045
:1010000012B206215A2001F0C5F9DFF8EC0300788E
:10101000002810D1DFF8E403007801280BD16BA27F
:10102000DFF8540600680100C9B2462001F047F914
:1010300000F04EFF02E000F04BFFA5E7DFF83806B6
:101040000068072879D162480078002875D1614886
:101050000078012871D133A2DFF81C060068010076
:10106000C9B2462001F02BF900F032FF00F096FEE5
:1010700054480078002813D15348007801280FD134
:10108000DFF8F005006801F0B7FADFF8F825DFF8BF
:10109000F83501F0D5FA01F08FFBDFF8D8150860BC
:1010A00046480078002813D14548007801280FD120
:1010B000DFF8C005006801F09FFADFF8C825DFF807
:1010C000CC3501F0BDFA01F077FBDFF8A815086018
:1010D000DFF8A0050168D24801F00CFA01F076FAB9
:1010E000020012B207215A2001F054F9C2480078D8
:1010F00000281FD1C148007801281BD133A2DFF896
:10110000780500680100C9B2462001F0D8F800F067
:10111000DFFE12E0A8740000B0740000B874000094
:10112000307400002D3E00003C7400004874000044
:101130005474000000F0CCFE98E7AF480078002817
:1011400054D1AE480078012850D101F091F800F058
:10115000BFFEB2480068DFF8F81B0860AF480068BF
:10116000DFF8F01B0860AF480068DFF8EC1B086090
:10117000AC480068DFF8E41B0860DFF8CC040068C6
:10118000DFF8DC1B0860DFF8C4040068DFF8D41B5C
:101190000860DFF8C0040068DFF8C41B0860DFF8EF
:1011A000C4040068DFF8B81B0860DFF8C8040068F2
:1011B000DFF8B81B08601DE0B00CFF1FE116FF1F31
:1011C000ED16FF1FE016FF1FEC16FF1F202000008A
:1011D000E216FF1FEE16FF1F60740000C0740000CF
:1011E000A80CFF1FAC0CFF1FB40CFF1F00F070FE1B
:1011F000FFF7DFBBDFF8780B0068032840F072844C
:10120000DFF8840C0078002840F06C84DFF8640B71
:101210000078012840F0668401F02AF800F058FEBA
:10122000DFF8542B0021302001F049F8DFF84C2B77
:1012300001210A2001F043F8DFF8442B02210A20A3
:1012400001F03DF8DFF83C2B03210A2001F037F8CC
:10125000DFF8342B04210A2001F031F800F09EFD64
:10126000D4A2DFF8280B00680100C9B2412001F0C8
:1012700026F8DFF8500C007800282BD1DFF8100B8F
:101280000078012826D1D7A2DFF8000B0068010002
:10129000C9B2412001F013F8DFF8F00A0068401CE1
:1012A000DFF8E81A0860C3A2DFF8E00A006801006E
:1012B000C9B2412001F003F8DFF8D00A0068052820
:1012C00008D1C8A20521412000F0F9FF0120DFF874
:1012D000BC1A0860DFF8F00B007800282BD1DFF88B
:1012E000B40A0078012826D1BEA2DFF8A00A00685F
:1012F0000100C9B2412000F0E2FFDFF8900A006867
:10130000401EDFF8881A0860DFF8800A00680028AD
:1013100008D1B4A20121412000F0D1FF0320DFF861
:101320006C1A0860A3A2DFF8640A00680100C9B261
:10133000412000F0C4FFDFF8540A0068012840F0A3
:101340001781DFF8440B0078002840F01181DFF8A6
:10135000240A0078012840F00B8100F089FFDFF8B3
:101360001C2A0021322000F0AAFFB9A201211E2070
:1013700000F0A5FFB8A202211E2000F0A0FFB7A236
:1013800003211E2000F09BFFB5A204211E2000F0C7
:1013900096FFB5A205211E2000F091FFB3A2062101
:1013A0001E2000F08CFFB2A207211E2000F087FF54
:1013B00000F08EFD00F0F2FC0124082C34DADFF896
:1013C000D80950F82400012807D1ACA22000010060
:1013D000C9B2552000F073FF0CE0DFF8BC0950F8EB
:1013E0002400002806D1A6A220000100C9B2552081
:1013F00000F065FF641CE0E7E316FF1FEF16FF1F18
:10140000C8740000D0740000D8740000E0740000BC
:101410006C74000078740000847400004416FF1F90
:10142000000020414816FF1F62A2DFF8A00A0068F2
:101430000100C9B23C2000F042FFDFF8880A0078C2
:1014400000282BD1DFF848090078012826D165A2B1
:10145000DFF8780A00680100C9B23C2000F02FFFD5
:10146000DFF8680A0068401CDFF8601A086051A2C3
:10147000DFF8580A00680100C9B23C2000F01FFFE5
:10148000DFF8480A0068082808D156A207213C2046
:1014900000F015FF0120DFF8341A0860DFF8280A91
:1014A000007800282BD1DFF8EC080078012826D13D
:1014B0004CA2DFF8180A00680100C9B23C2000F015
:1014C000FEFEDFF8080A0068401EDFF8001A086018
:1014D000DFF8F8090068002808D142A201213C2069
:1014E00000F0EDFE0720DFF8E419086031A2DFF814
:1014F000DC0900680100C9B23C2000F0E0FEDFF822
:1015000088090078002821D1DFF8680800780128D0
:101510001CD1DFF88408DFF8B419096850F82100FD
:10152000002802D0012809D010E00120DFF8681857
:10153000DFF89829126841F8220007E00020DFF860
:101540005818DFF88829126841F82200DFF8E4090A
:101550000078002809D1DFF8E0090078012804D1DB
:1015600000F086FE00F0B4FC02E000F0B1FC21E7E0
:10157000DFF818080068022840F02E81DFF808091B
:101580000078002840F02881DFF8E807007801287B
:1015900040F0228100F06CFEDFF8E42700213220C9
:1015A00000F08DFE2AA201211E2000F088FE2AA252
:1015B00002E000BF2A00000002211E2000F07FFE92
:1015C00026A203211E2000F07AFE25A204211E205F
:1015D00000F075FE24A205211E2000F070FE23A25B
:1015E00002E000BF2000000006211E2000F067FE80
:1015F0001FA207211E2000F062FE00F069FC00F02F
:10160000CDFB0124082C43DADFF8300950F8240020
:10161000012808D1DFF8682720000100C9B2502056
:1016200000F04DFE0DE0DFF8140950F8240000280A
:1016300007D1DFF80C2920000100C9B2502000F0CA
:101640003EFE641CDEE700BF4C16FF1F5016FF1F56
:10165000310000005416FF1F32000000330000006C
:10166000340000005816FF1F35000000360000004F
:10167000370000005C16FF1FBC0CFF1F3C2D000054
:101680002D3E00009A9999999999B93F9999B9BFB6
:10169000BCA2DFF8380800680100C9B23C2000F0A5
:1016A0000EFEDFF82008007800282BD1DFF8E006D6
:1016B0000078012826D1B4A2DFF8100800680100E4
:1016C000C9B23C2000F0FBFDDFF800080068401CB8
:1016D000DFF8F8170860ABA2DFF8F0070068010038
:1016E000C9B23C2000F0EBFDDFF8E00700680828F5
:1016F00008D1A5A207213C2000F0E1FD0120DFF880
:10170000CC170860DFF8C007007800282BD1DFF87D
:1017100084060078012826D19BA2DFF8B007006874
:101720000100C9B23C2000F0CAFDDFF8A007006844
:10173000401EDFF898170860DFF89007006800285F
:1017400008D191A201213C2000F0B9FD0720DFF86B
:101750007C1708608BA2DFF8740700680100C9B22B
:101760003C2000F0ACFDDFF820070078002821D1F4
:10177000DFF80006007801281CD1DFF8C007DFF889
:101780004C17096850F82100002802D0012809D020
:1017900010E00120DFF8A417DFF83027126841F8C5
:1017A000220007E00020DFF89417DFF820271268F6
:1017B00041F82200DFF87C070078002809D1DFF823
:1017C00078070078012804D100F052FD00F080FB7A
:1017D00002E000F07DFB12E7DFF8B00500680328A7
:1017E00040F02081DFF8A0060078002840F01A8140
:1017F000DFF880050078012840F0148100F038FD02
:10180000DFF880250021322000F059FDACA2012133
:101810001E2000F054FDABA202211E2000F04FFD5F
:10182000A9A203211E2000F04AFDA8A204211E2027
:1018300000F045FDA6A205211E2000F040FDA5A256
:1018400006211E2000F03BFDA3A207211E2000F070
:1018500036FD00F03DFB00F0A1FA0124082C2DDA42
:10186000DFF8E00650F82400012808D1DFF8D82678
:1018700020000100C9B2502000F021FD1CE0DFF87B
:10188000C40650F82400022808D1DFF8C026200042
:101890000100C9B2502000F012FD0DE0DFF8A406EF
:1018A00050F82400032807D1DFF8A4262000010007
:1018B000C9B2502000F003FD641CCFE731A2DFF86D
:1018C0000C0600680100C9B23C2000F0F8FCDFF80B
:1018D000F405007800282BD1DFF8B4040078012843
:1018E00026D129A2DFF8E40500680100C9B23C2036
:1018F00000F0E5FCDFF8D4050068401CDFF8CC15EB
:10190000086020A2DFF8C40500680100C9B23C20CD
:1019100000F0D5FCDFF8B4050068082808D11AA249
:1019200007213C2000F0CBFC0120DFF8A015086067
:10193000DFF894050078002830D1DFF858040078EB
:1019400001282BD110A2DFF8840500680100C9B27C
:101950003C2000F0B4FCDFF874050068401EDFF89E
:101960006C150860DFF864050068002808D106A23D
:1019700001213C2000F0A3FC0720DFF8501508608F
:1019800000A203E02A00000020000000DFF83C0570
:1019900000680100C9B23C2000F091FCDFF8E804C7
:1019A000007800282CD1DFF8CC030078012827D15B
:1019B000DFF89005DFF81415096850F821000128B8
:1019C00004D01DD3032813D009D319E00220DFF877
:1019D0007415DFF8F824126841F8220010E00320A3
:1019E000DFF86015DFF8E424126841F8220007E010
:1019F0000120DFF85015DFF8D424126841F82200E6
:101A0000DFF830050078002809D1DFF82C050078D0
:101A1000012804D100F02CFC00F05AFA02E000F09A
:101A200057FA18E7DFF82C050078002805D1A6A2A0
:101A300004215A2000F043FC09E0DFF81805007883
:101A4000012804D1AFA204215A2000F038FCDFF8AD
:101A50003C030068042824D1DFF82C040078002817
:101A60001FD1DFF81003007801281AD1DFF818041D
:101A70000078002815D1DFF8FC020078012810D189
:101A8000DFF8D0040078002802D0012805D008E053
:101A90000120DFF8C014087003E00020DFF8B41460
:101AA0000870DFF890040078002817D1DFF8880468
:101AB0000078012812D100F0DBFB00F009FA11E0F8
:101AC000310000003200000033000000340000004C
:101AD00035000000360000003700000000F0F8F983
:101AE000FFF79EBBDFF87004026812B20621532094
:101AF00000F050FC9E480068062863D1DFF8880398
:101B0000007800285ED19B48007801285AD18FA226
:101B10000621462000F0D3FB00F0DAF900F03EF990
:101B2000DFF8A4030078002813D19A480078012830
:101B30000FD1DFF824040068401CDFF81C14086093
:101B4000DFF814040068052803DB0520DFF808141B
:101B50000860DFF870030078002813D18C48007803
:101B600001280FD1DFF8F0030068401EDFF8E8130A
:101B70000860DFF8E4030068012803DA0020DFF8DA
:101B8000D8130860DFF8D003026812B20621532090
:101B900000F000FCDFF89C03007800280FD1DFF88C
:101BA0009803007801280AD16FA2714800680100EB
:101BB000C9B2462000F083FB00F08AF902E000F091
:101BC00087F9ABE7DFF894030078002805D13EA23F
:101BD00007215A2000F073FB09E0DFF8800300784A
:101BE000012804D147A207215A2000F068FB604871
:101BF0000068072820D1A448007800281CD15D483F
:101C00000078012818D1A0480078002814D159483C
:101C10000078012810D1DFF844030078002802D0B2
:101C2000012805D008E00120DFF83013087003E038
:101C30000020DFF828130870DFF82403006800286C
:101C400006D1DFF8202304215A2000F038FB0AE0F7
:101C5000DFF80C030068012805D1DFF80C2304210C
:101C60005A2000F02CFB42480068042820D1864806
:101C7000007800281CD13F480078012818D18248FC
:101C80000078002814D13B480078012810D1DFF8F3
:101C9000D0020068002802D0012805D008E0012009
:101CA000DFF8BC12086003E00020DFF8B41208601F
:101CB000DFF8B8020078002808D103A205215A20D5
:101CC00000F0FDFA0CE000BF6F666600DFF89C02D2
:101CD0000078012804D10BA205215A2000F0EFFA68
:101CE00023480068052820D16748007800281CD1C7
:101CF00020480078012818D163480078002814D1C2
:101D00001C4801E06F6E2000007801280DD1974833
:101D10000078002802D0012804D006E00120934971
:101D2000087002E00020914908708248007800287D
:101D300006D181480078012802D100F099FA03E029
:101D400000F0C6F8FEF769BB10BD00002D3E000094
:101D50006816FF1F7016FF1F6C16FF1F7416FF1FFB
:101D60006016FF1F6416FF1F2A2000007816FF1F51
:101D7000B00CFF1FEE16FF1FB8740000E8740000DF
:101D8000F0740000F874000090740000C00CFF1F95
:101D9000ED16FF1FEC16FF1FC40CFF1F80B521209E
:101DA00000F0BDFD002803D101204749087002E082
:101DB000002045490870222000F0B1FD002803D121
:101DC00001204049087002E000203E4908702320AD
:101DD00000F0A5FD002803D101202B49087002E086
:101DE000002029490870242000F099FD002803D123
:101DF00001205049087002E000204E49087035204B
:101E000000F08DFD002803D001205949087002E040
:101E1000002057490870372000F081FD002803D0CA
:101E200001205449087002E0002052490870342013
:101E300000F075FD002803D001204F49087002E032
:101E400000204D490870362000F069FD002803D0BD
:101E500001204A49087002E00020484908704020EB
:101E600000F05DFD002803D001204549087002E024
:101E70000020434908700C2000F051FD002805D0D7
:101E800001204049087004E0E216FF1F00203D4990
:101E900008700D2000F043FD002803D001203A49CE
:101EA000087002E00020384908700E2000F037FD6D
:101EB000002803D001203549087002E00020334992
:101EC000087001BDE116FF1FE016FF1FB80CFF1FD1
:101ED0002F4800782F4908702F4800782F49087044
:101EE0002F4800782F49087012480078124908706E
:101EF000214800782C4908701D4800782B4908704B
:101F00001E4800782A4908701A4800782949087044
:101F10001B480078284908701A480078274908703B
:101F20001948007826490870184800782549087033
:101F300070470000E316FF1FEF16FF1FE40CFF1FA2
:101F400000750000040DFF1F0875000010750000EB
:101F500018750000A50DFF1F4016FF1FF816FF1F84
:101F60003C16FF1F2075000028750000A40DFF1F00
:101F7000E516FF1FE716FF1FE416FF1FE616FF1FFB
:101F8000E816FF1FE916FF1FEA16FF1FEB16FF1FDB
:101F9000E016FF1FEC16FF1FE116FF1FED16FF1FD7
:101FA000E216FF1FEE16FF1FF016FF1FF116FF1FB0
:101FB000F216FF1FF316FF1FF416FF1FF516FF1F83
:101FC000F616FF1FF716FF1F01000822DFF8A40313
:101FD000006850F40020DFF89C33186000BFDFF881
:101FE0009403006830F48030DFF88833186000BF55
:101FF0001000421EC0B2002825D0080608D5DFF820
:102000007403006850F40030DFF86833186007E0AC
:10201000DFF86003006830F40030DFF858331860F0
:10202000DFF85003006850F48030DFF84833186060
:1020300000BFDFF84003006830F48030DFF834334D
:1020400018604900D4E7704701000822DFF8240334
:10205000006830F40020DFF81C331860DFF8140348
:10206000006830F48030DFF80C3318601000421E36
:10207000C0B2002825D0080608D5DFF8F8020068AD
:1020800050F40030DFF8EC32186007E0DFF8E402CB
:10209000006830F40030DFF8DC321860DFF8D4027A
:1020A000006850F48030DFF8CC32186000BFDFF8F1
:1020B000C402006830F48030DFF8B832186049009C
:1020C000D4E7704738B504000D00B5F15000C0B238
:1020D000FFF7BAFF2000C0B2000950F01000C0B2F4
:1020E000FFF7B2FF14F00F00FFF7AEFF31BD70B580
:1020F000040000252800C0B2082818DAB5F1500005
:10210000C0B2FFF7A1FF0120FFF79EFF1020FFF7ED
:102110009BFF002006003000C0B2802805DA2000B6
:10212000C0B2FFF751FF761CF5E76D1CE2E770BD0A
:10213000010089B2002909D043F226410A001100AA
:102140004A1E89B20029FAD1401EF1E7704780B5D6
:102150004FF48070DFF8201208604FF48070DFF8D1
:102160001C1208604FF48070DFF8141208604FF4FE
:102170008070DFF8101208605FF47020DFF808123A
:102180000860DFF8F001006850F48030DFF8E411F7
:102190000860DFF8E001006830F48020DFF8D41137
:1021A00008603220FFF7C4FFDFF8C801006850F470
:1021B0008020DFF8C0110860AE20FFF745FF002047
:1021C000FFF742FF1020FFF73FFF4020FFF73CFFE3
:1021D0008120FFF739FFCF20FFF736FFA120FFF75F
:1021E00033FFC820FFF730FFA620FFF72DFFA82000
:1021F000FFF72AFF3F20FFF727FFD320FFF724FF39
:102200000020FFF721FFD520FFF71EFF8020FFF7FA
:102210001BFFD920FFF718FFF120FFF715FFDA2089
:10222000FFF712FF1220FFF70FFFDB20FFF70CFF75
:102230004020FFF709FF2020FFF706FF0220FFF7ED
:1022400003FF8D20FFF700FF1420FFF7FDFEA42001
:10225000FFF7FAFEA620FFF7F7FEAF20FFF7F4FE28
:102260000020FFF744FF00210020FFF72BFF01BDF6
:1022700038B500252800C0B208281FDAB5F1500093
:10228000C0B2FFF7E1FE0020FFF7DEFE1020FFF7EF
:10229000DBFE002004002000C0B280280CDADFF84A
:1022A000EC002100C9B200EBC1002900C9B2405CBA
:1022B000FFF78AFE641CEEE76D1CDBE731BD2DE9FC
:1022C000F84304000D00160000275FF000085FF0DF
:1022D00000094846C0B2305C00282AD04846C0B247
:1022E000305C203807002000C0B27F2802DB0020CD
:1022F00004006D1C2900C9B22000C0B2FFF7E2FE45
:10230000002080464046C0B206280EDA20493A0036
:10231000D2B20620424301EB02004146C9B2405C02
:10232000FFF752FE18F10108ECE7A41D19F10109AD
:10233000CFE7BDE8F183F8B504000D0016002900D1
:10234000C9B22000C0B2FFF7BDFE203E0027380012
:10235000C0B206280DDA0E49320092B2062042437E
:1023600001EB02003900C9B2405CFFF72DFE7F1C73
:10237000EDE7F1BD80F00F4040B0044044B00440B0
:1023800048B004404CB0044094F00F403010FF1FA0
:10239000D06A000070B504000D001600300000B2D5
:1023A000002854D536B276422D222900C9B2200029
:1023B000C0B2FFF7C0FF300000B242F2107190FBD4
:1023C000F1F201FB12004FF47A7190FBF1F230321E
:1023D00092B22900C9B2A01DC0B2FFF7ACFF300015
:1023E00000B24FF47A7190FBF1F201FB120064210C
:1023F00090FBF1F2303292B22900C9B214F10C0014
:10240000C0B2FFF798FF300000B2642190FBF1F2F8
:1024100001FB12000A2190FBF1F2303292B2290046
:10242000C9B214F11200C0B2FFF785FF320012B238
:102430000A2092FBF0F100FB1122303292B2290007
:10244000C9B214F11800C0B2FFF775FF51E02022A5
:102450002900C9B22000C0B2FFF76DFF300000B202
:1024600042F2107190FBF1F201FB12004FF47A710D
:1024700090FBF1F2303292B22900C9B2A01DC0B275
:10248000FFF759FF300000B24FF47A7190FBF1F280
:1024900001FB1200642190FBF1F2303292B229006C
:1024A000C9B214F10C00C0B2FFF745FF300000B212
:1024B000642190FBF1F201FB12000A2190FBF1F282
:1024C000303292B22900C9B214F11200C0B2FFF743
:1024D00032FF320012B20A2092FBF0F100FB11220F
:1024E000303292B22900C9B214F11800C0B2FFF71D
:1024F00022FF70BDFF2212EAD05C1DBF12EAD15349
:10250000944593422BE09C44D30780EA01021A4091
:1025100043EA002043EA0121A1FB0030C04238BF5A
:1025200040007CF17F010BDBFE294ADA5B0842EABE
:10253000C15153EA006373F1004C51EB1020704716
:10254000D1F1080CDCF120012FDB5B0810FA01F15E
:102550000B4320FA0CF073F1004150417047944551
:102560001CBF02EAD153934280EA010202F000420A
:102570001DD0400019D0490017D05BB9634514D075
:102580000902B1FA81F39940BCEB030CC00140F0A1
:102590000040C1E70002B0FA80FC10FA0CF0B3EB87
:1025A0000C0CC90141F00041B6E710007047400033
:1025B0000AD0490008D010F1807F94BF11F1807FCC
:1025C00002E042F0FF407047D0437047C0F3C7516C
:1025D0007E390EDDC217D1F1200106DD000240F088
:1025E0000040C840104450407047D04380F0004045
:1025F0007047002070470000C0F3C75181B1FF2928
:1026000006D0C110400721F0E04101F16051704750
:1026100041020CBF40F4E0016FF000410020704720
:1026200000F0004100020AD0B0FA80FC00FA0CF081
:1026300001F16051A1EB0C5101EBD0214005704735
:1026400070B44FF0004591EA030F40F195816B4063
:10265000841A71EB030604D26E40001BB1411219BB
:1026600073414FF4001C1CEB410F34BF7CEB43065D
:1026700082E00C0DA4EB1356362E7BDC012E45EACE
:10268000C32341DC43EA525312BFD20292025B08D9
:10269000240545EAC12141EA5051D2EBC0209941BD
:1026A00025D407D1B0FA80F610FA06F162D00020E6
:1026B000203608E0B1FA81F6B140C6F1200220FAD6
:1026C00002F21143B0404FEAF474B4EB465434F0D4
:1026D00001064FEA74040AD8D6F50016760D04F008
:1026E0000044F04061FA06F25040F1404840C00A10
:1026F00040EA415021F0004128BF5FEA500550F107
:10270000000044EBD12135E0DB0A45EAC121C90ACA
:10271000B6F120050EDD42EA0242120CC5F1200698
:1027200003FA06F6EB4042EA06056D42984161F174
:1027300000010DE062FA06F5F240554063FA06FC2E
:1027400082EA0C02F3405A406D42904161EB030172
:1027500011F4801F05D1641E620502D06D00404156
:10276000494121F48011430875F1004350F1000004
:1027700041EB045170BC70471CEB410F15D223F0A4
:10278000004352EA43060BD04FEA4C0CBCEB410F1E
:1027900004D80C0D661E342EB7DDEBE7801A994184
:1027A00050EA410608BF0021E4E708BF1CEB430FD5
:1027B00028BF6FF00001DDE701F000428B1AA3F1A2
:1027C0006051B1F5801F0ADBB1F17F6F1FD242EA81
:1027D000C102C10071F1004142EB507070470B150E
:1027E000C3F10903212B10D2890241EA90518002E2
:1027F0000128494141F0004121FA03F0C3F12003CF
:10280000994071F1004150417047100070476FF0DE
:10281000000013EB103F5CBF000E42EAC05070474F
:1028200070B504000D0016004FF480712000C0B296
:1028300000F00CF9280040B2002813D148482100CC
:10284000C9B2491150F8211045482200D2B25211A4
:1028500050F822004269012314F01F0083409A437C
:102860004A613DE03E482100C9B2491150F82110AB
:102870003B482200D2B2521150F822004269012393
:1028800014F01F0083401A434A613000C0B2002890
:1028900013D133482100C9B2491150F82100016811
:1028A000012214F01F00824091432D482200D2B231
:1028B000521150F82200016012E029482100C9B2EB
:1028C000491150F821000168012214F01F008240D4
:1028D000114323482200D2B2521150F82200016065
:1028E00070BD10B504001E482100C9B2491150F84E
:1028F0002100406914F01F01C840C00703D47B21A8
:10290000184800F01AF916482100C9B2491150F8C8
:102910002110012214F01F008240CA6010BD10B5C2
:1029200004000F482100C9B2491150F82100406944
:1029300014F01F01C840C00703D58C21094800F0DE
:10294000FCF807482100C9B2491150F8210000697C
:1029500014F01F04E04010F0010010BD0000000062
:10296000200CFF1FA871000070B44FF0004591EAE1
:10297000030F7FF56DAE6B40841A71EB030603D233
:10298000001BB141121973414FF4001C1CEB410FA5
:1029900034BF7CEB430442E00C0DA4EB1356352E00
:1029A0004FDC45EAC323DB0A45EAC121C912B6F16F
:1029B00020050DDD63FA05F6EB4086EA03051242B9
:1029C00018BF45F00105C01851F100010CD213E009
:1029D00062FA06F5F2405540F3415A40B340F340E5
:1029E0005A408018594107D349085FEA30005FEA2E
:1029F000350528BF45F0010501F58011420875F144
:102A0000004250F1000041EB04514E0016F5001F4A
:102A100070BC38BF70470020090D090570471CEBDA
:102A2000410F10D252EA43060BD0BCEB410F05D840
:102A30000C0DAB43661E342EB6DD02E0AB438018AE
:102A4000594170BC704770BC7047000010B42E4AEA
:102A500013684FF400740200D2B252099440234329
:102A6000294A1360294A0300DBB25B1152F8233074
:102A7000012410F01F029440C3F8A040234A030031
:102A8000DBB25B1152F823200300DBB213F01F030B
:102A900042F8231010BC704710B41B4A13684FF45F
:102AA00000740200D2B2520994402343164A1360C4
:102AB000164A0300DBB25B1152F82330012410F0F8
:102AC0001F029440C3F8A04031F4E0610F4A0300B4
:102AD000DBB25B1152F823200300DBB213F01F03BB
:102AE00052F8232012F4E0621143084A0300DBB2DB
:102AF0005B1152F823200300DBB213F01F0342F8EE
:102B0000231010BC70470000388004407C0CFF1F6D
:102B1000DFF800F0D10DFF1FDFF800F0F90DFF1F07
:102B2000BFF34F8F4748016811F4E0614648014305
:102B300044480160BFF34F8FFEE738B504000D0035
:102B4000002000F08FF82A002100404800F0B6F87D
:102B5000002000F0A7F84FF47A7000F0EFF8F2E7E9
:102B600038B504000D00210049B2032000F029FA15
:102B7000200032BD10B50024042000F057FA0420D4
:102B800000F090FA002842D1002000F06BF80420F9
:102B900000F088FA012801D101200400002000F093
:102BA00081F82B4800F08AF84FF4FA7000F0C6F86C
:102BB0002000C0B20128EAD1042000F073FA0028F6
:102BC000E5D1042000F06EFA002806D1002000F0C4
:102BD00069F8642000F0B2F8F3E7042000F062FA2C
:102BE000012806D1002000F05DF8322000F0A6F8A0
:102BF000F3E7184800F062F8FFF78AFF642000F05E
:102C00009DF80020FFF788FFFFF78AFFBFE710BDA0
:102C100010B511480468012000F024F8012000F0EC
:102C200041F80E492200D2B20F2042430A4421004B
:102C3000C9B20B4800F042F84FF47A7000F07EF809
:102C4000ECE700000CED00E00400FA0574730000EE
:102C50001C740000A873000004ED00E00C05FF1FC9
:102C60001073000010B50400200040B2042808DAF8
:102C700001220121104823005BB2C05CFFF7D0FDA8
:102C80000FE0042004002000441E40B2002808D0B9
:102C900001220121084823005BB2C05CFFF7C0FDA0
:102CA000F1E710BD10B504000348210049B2405CB3
:102CB000FFF717FE10BD00001804FF1F0EB4C0B5CB
:102CC000024603A800210190009101AB01210448B4
:102CD00078440C3000F0FEF906BC5DF810FB00BF34
:102CE0001B47000010B41149096851F080710F4A68
:102CF00011600F49096851F001010D4A11600D4939
:102D00000A680D4909684FF47A7391FBF3F303FBEA
:102D100000F39918914203D2064C2468A142FBD3D8
:102D2000044C24688C42FBD310BC7047FCED00E0DF
:102D3000001000E0041000E07C16FF1F10B5040036
:102D40002000441E002804D04FF47A70FFF7CAFF19
:102D5000F6E710BD012210F01F018A40DFF8B01223
:102D600003005BB25B0941F8232070472DE9F04175
:102D700004000D00200040B2002808D002282CD00A
:102D800018D304284FD03BD305285FD071E0DFF87B
:102D90008402006850F48060DFF8781208604FF415
:102DA00040716620FFF752FE4FF440716720FFF735
:102DB0004DFE5EE0DFF85C02006850F40060DFF872
:102DC000541208604FF440714320FFF73FFE4FF468
:102DD00040714420FFF73AFE4BE0DFF8380200680C
:102DE00050F48050DFF82C1208604FF440716320DB
:102DF000FFF72CFE4FF440716220FFF727FE38E00A
:102E0000DFF81002006850F40050DFF80812086084
:102E10004FF440715020FFF719FE4FF440715120DC
:102E2000FFF714FE25E0DFF8F001006850F4806041
:102E3000DFF8E41108604FF440714E20FFF706FE02
:102E40004FF440714F20FFF701FE12E0DFF8C80198
:102E5000006850F40060DFF8C01108604FF4407162
:102E60008920FFF7F3FD4FF440718820FFF7EEFD56
:102E7000FFE7DFF8A801210049B250F82100C0782F
:102E800010F0F300DFF89411220052B251F8221032
:102E9000C870DFF88801210049B250F8210080781D
:102EA000DFF87811220052B251F822108870200009
:102EB00040B2002803D0200040B2012806D1DFF83C
:102EC000600106684FF47A70464305E0DFF854016C
:102ED00006684FF47A7046432801B6FBF0F73800D5
:102EE00080B2B0F5005F02DB41F6FF700700B6FB71
:102EF000F5F8380080B2B8EB0018404680B22028C0
:102F000005DB40F20311DFF82001FFF716FE43480E
:102F1000210049B250F82100007810F0E000C7F31A
:102F2000042101433D4A23005BB252F82320117073
:102F30003A49220052B251F822104F70374922000C
:102F400052B251F82210897A11F0E00118F01F02F4
:102F50000A43324BA4464FFA8CFC53F82C309A7239
:102F60002E4A23005BB252F82320127C52F08802D2
:102F70002A4BA4464FFA8CFC53F82C301A74274A7B
:102F800023005BB252F82320D27852F00C02234B7C
:102F9000A4464FFA8CFC53F82C30DA70BDE8F0816F
:102FA0001E4A03005BB252F8232012799206F7D52D
:102FB0001A4A03005BB252F8232092F907200A70E4
:102FC0007047164A03005BB252F8232012791206AA
:102FD000F7D5124A03005BB252F82320D171704733
:102FE00010B504000D48210049B250F82100C07806
:102FF00050F020000949220052B251F82210C87046
:10300000200040B240002D3040B2FFF7A3FE10BDBB
:1030100000E100E03480044028800440900CFF1F51
:103020007C16FF1F8416FF1F0C72000010B50400F1
:10303000200040B208280FDA002200212448230093
:103040005BB2C05CFFF7ECFB03212148220052B2C7
:10305000805CFFF721FD16E0082004002000441EDC
:1030600040B200280FD000220021194823005BB293
:10307000C05CFFF7D5FB03211548220052B2805CEB
:10308000FFF70AFDEAE710BD10B504001048210063
:1030900049B2405CFFF743FC002801D1002000E06A
:1030A000012010BD10B50400200040B2FFF7ECFF76
:1030B00000280AD10A20FFF741FE200040B2FFF7A6
:1030C000E3FF002801D1002000E0012010BD000036
:1030D0001004FF1F2DE9F0439FB00FF6BC36269C6D
:1030E000DFF81C8902918DF83B4000210B914FF0D5
:1030F000FF37044691461D460AE019F8011B029865
:10310000A0470028029000F0A4800B98401C0B9070
:1031100099F8000050B12528EFD10020002105903A
:1031200006910790089109900A9103E00B98A3E09B
:1031300041F0010119F8010F2028F9D023280CD003
:103140002B2804D02D2805D0302809D083E041F069
:103150000201EFE741F00401ECE741F00801E9E783
:1031600041F01001E6E700200D900AE00D9840457F
:1031700005DA00EB800302EB4302303A0D9209F1CD
:10318000010999F80020A2F130000A28EED399F83D
:1031900000002E2818BF0C9726D119F8010F2A28F5
:1031A00008D12868286009F1010950F8042B28602B
:1031B0000C9219E02D280CBF19F8010B00200022F9
:1031C0000C920BE040B90C9A424505DA02EB820200
:1031D00003EB4203303B0C9309F1010999F80030ED
:1031E000A3F130020A2AEDD3ADF83810304699F831
:1031F000001000F085FD08B119F8010B8DF83A00B8
:103200009DF83A00682804BF99F80010682903D196
:1032100062208DF83A0008E06C2804BF99F800009D
:103220006C2804D171218DF83A1009F1010910A818
:1032300004902A4619F8013B6946204600F05CF8E4
:1032400038B910AA6946204600F084F900287FF5B5
:103250005FAF384610E02A2885D12A682A6052F8E4
:10326000040B2A6000280D9003D540420D9041F0D8
:10327000040109F101098AE71FB0BDE8F083622863
:1032800020D0682811D06A2803D06C2827D0712854
:1032900025D10868C01D20F007000860D0E9002390
:1032A00008300860194610467047002A0A680A600C
:1032B000106803D0121D0A6000B217E0121D0A60E8
:1032C00080B217E0002A0A680A60106803D0121D55
:1032D0000A6040B20AE0121D0A60C0B20AE0002A89
:1032E0000A680A60106803D0121D0A60C11770478F
:1032F000121D0A600021704770B51C460D46B4F1DE
:1033000025002E69114600F013812038022865D966
:10331000133841D00B3816D0401E1ED0401E022854
:103320005CD9001F19D0401F00F08380401E33D0AD
:10333000401E00F0CD80C01E00F0D880801E2BD033
:10334000C01E29D0FAE06869421C6A610A680A60F6
:1033500052F8043B0A603354FAE095F83A0001222F
:10336000FFF78DFFC5E900010023994204DA68697F
:10337000411C69612D210DE0288F810704D5686902
:10338000411C69612B2105E0C00722D56869411CF9
:103390006961202131541CE095F83A000022FFF7C2
:1033A0006EFFC5E9000195F83800010711D5D5E990
:1033B00000230020834208BF82420AD044F020004C
:1033C000782806D1686930213154401C411C69615C
:1033D0003454214668693044E86083E00868C01DC1
:1033E00020F007000860D0E9002308300860C5E934
:1033F0000023D5E90001C80F04D06869411C696148
:103400002D210DE0288F810704D56869411C696171
:103410002B2105E0C00704D56869411C69612021A2
:10342000315468693044E8602146284600F0C4F908
:103430008EE005F13A02507820B14FF0FF340FF6DC
:1034400060005EE01078622808D0682824D06A28DE
:1034500012D06C282ED071280ED02BE00A680A609A
:1034600052F8040B0A6020B94FF0FF340FF6480001
:1034700047E0E96A01706BE00A680A6052F8040BE1
:103480000A6020B94FF0FF340FF62C0039E0EA6AE9
:10349000D317C0E900235BE00A680A6052F8040B06
:1034A0000A6020B94FF0FF340FF60C0029E0E96AFA
:1034B00001804DE00A680A6052F8040B0A6020B9E6
:1034C0004FF0FF340FF2F0701BE0E96A01603FE05B
:1034D0000A680A6052F8040B0A600021C5E900017D
:1034E000EE607821284600F0BBF831E008680860FB
:1034F00050F8044B0860EC603CB94FF0FF340FF219
:10350000D07000F009FC201A70BD2E6B002E04D57F
:10351000204600F021FC044608E032460021204607
:1035200000F036FC002814BF041B3446AC610FE0E9
:103530006869411C69612521315409E06969481CA9
:10354000686125227254210002D0411C6961345403
:10355000002070BD2DE9FC410F460646796B786965
:10356000BC6A091A386A091AB869091A786A091A04
:10357000F869091A97F838000C1B410790460FD4D8
:103580002021002C8DF800100ADD254601236A4613
:103590003946304600F068FB00285DD16D1EF5D13C
:1035A0007B6942463946304600F05EFB002853D125
:1035B00030208DF800003D6A002D09DD01236A46A8
:1035C0003946304600F050FB002845D16D1EF5D13C
:1035D000BB69FA683946304600F046FB00283BD10B
:1035E00030208DF800007D6A002D08DD01236A4639
:1035F0003946304600F038FB70BB6D1EF6D1F868D6
:10360000B969FB6942183946304600F02DFB18BBFA
:1036100030208DF80000BD6A002D08DD01236A46C8
:103620003946304600F020FBB0B96D1EF6D197F850
:10363000380041070DD52021002C8DF8001008DD41
:1036400001236A463946304600F00EFB20B9641E5D
:10365000F6D10020BDE8F6814FF0FF30BDE8F681DD
:103660002DE9FC4707468A463E69BAF16F0F08BF4D
:10367000082405D04AF02001782914BF0A24102418
:103680003C25D7E90023BAF1640F18BFBAF1690FDE
:103690009046994606D100218B4203DAD8F1000802
:1036A00069EB49090020814508BF80451FD1386B6F
:1036B000E8B9082C4CD197F83800010748D53020DC
:1036C0003B2586F83B0043E000280ED597F83800EC
:1036D00000F01400102808D17A6B7869121A386A41
:1036E000121A511A0029C8BF3962BDE8F3878DF854
:1036F00000A0404649462246E31700F075FB3032F1
:10370000D0B26D1E3A28019504DB9DF80000A0F1AF
:1037100051018A187255404649462246E31700F087
:1037200063FB804689460020814508BF804503D061
:10373000F86871198842DCD3082C09D197F8380051
:10374000010705D5715D302902D06D1E30207055FE
:10375000C5F13C01B9617019F860386B8142B3DA88
:10376000411A39624FF6EF70398F01403987BDE851
:10377000F3872DE9D04306460F4614464FF0000864
:10378000DFF8809212E0E00707D542464B4630460C
:10379000394600F041FC06460F464046494642463F
:1037A0004B4600F039FC641080468946002CEAD173
:1037B00030463946BDE8D0832DE9F84F05468CB038
:1037C000286BD5E9009B00288A4602AF02D5062067
:1037D000286305E001BF4AF0200067280121296322
:1037E000D5E9008460004015401C0DD121030BD0A9
:1037F000AAF1610103201A29A86102D20FF2EC415B
:1038000010E00FF2EC410DE060004015401C0ED1BD
:1038100021030CD1AAF1610103201A29A86116D352
:103820000FF2D441E868032200F0C8FCE4E024F081
:103830000043B3F5801F28F0000211D20026B342E6
:1038400008BFB242019605D14046214618E00FF26A
:10385000A441E7E701AA4046214600F003FD08E045
:1038600069486A4900EB135001900C406849404692
:103870002143019B674E47F29752534393FBF6F661
:10388000C5E9000120F0000221F00043002083423E
:1038900004BF8242002300F0A78048465946002218
:1038A000002300F017FD38BF8BF0004B3246D2F1F9
:1038B0000702019603DD5946FFF75BFF0AE052421B
:1038C00000205549FFF755FF02460B46484659462A
:1038D00000F018FD81464AF0200000906628286B11
:1038E00006BF019F0A3706273F18142FC8BF1427A9
:1038F00030208B468DF808000DF10906002F34DDCD
:103900004846594600F022FE01460B4606F10802E1
:1039100004200A26B3FBF6F606EB8604A3EB440369
:10392000303302F8013C0A23B6FBF3F303EB8304C4
:10393000A6EB44063036401E02F8026DE9D1083F7E
:10394000002F02F10806D9DD084600F013FE0246FA
:103950000B4648465946FFF707F8304C00222346ED
:1039600000F05AFB81468B46CAE70DF10900361A72
:103970000DF1090704E00198401E761E01907F1C9E
:1039800038783028F7D00099662902D10198401C78
:1039900003E065290CBF012000202B6BC3189E4259
:1039A000B8BF731E002B1ED4B34204DAF85C35286E
:1039B000A8BF392000DA302019467A1E02EB01092F
:1039C00000E05B1E19F801B9491E8345F9D039287A
:1039D00002D1785C401C7854002904D50198401C21
:1039E00017465B1C0190019800B200901BB23A464A
:1039F0005146284600F014F80DB0BDE8F08F0000E5
:103A0000CBCCCC0C0000244002FCFFFFFFFF0F805A
:103A10000000E03FA08601000000F03F84D79741FE
:103A20002DE9F84783B005468A469146984600F04E
:103A3000AFFDB8F1000F406A2F6B067803DC4FF042
:103A400001080FF2B829BDF930404AF0200066287D
:103A500008BF641C13D0672840F08F8014F1040F56
:103A60007ADBBC4278DA95F83800641C010702D48E
:103A7000B845B8BF474620B23F1A48BF00270FFAE3
:103A800084FAE868A969BAF1000F23DC4A1C3023E4
:103A90004354002F03DC95F83800010702D5E8688D
:103AA0008654521C17EB0A0FB8BF7C4224B2E719A8
:103AB00060424745B8BFB846AA6168620FFA88F409
:103AC000EC61E868AB6922464946184400F076FB91
:103AD0003F1B18E022B29045084416DA4246494698
:103AE00000F06CFBA8694044A861AAEB0801002F14
:103AF000696203DC95F838100A0704D5E9680E54AA
:103B0000E869401CE861AF6297E0494600F056FB67
:103B1000A869002F5044A8EB040803DC95F838107E
:103B20000A0702D5E9680E54401CA8610FFA88F014
:103B30008742E868AB69B8BFB8460FFA88F209EB6C
:103B40000A01184400F03AFBA8690FFA88F108440A
:103B5000A861781A686270E0B84504DA95F8381000
:103B60000A0758BF47467F1E48BF0027BAF1670FB4
:103B70000CBF4FF0650A4FF0450AA969EB68481C75
:103B8000A861002F19F8012B5A5403DC95F838105E
:103B90000A0717D5E968431CAB610E54002F11DDED
:103BA000A8F1010630B28742E868B8BF3E4632B29B
:103BB0004946184400F002FBA86936B23018BF1B12
:103BC000A8616F62E868A9690844002C80F800A029
:103BD00003D42B214170811C03E02D2141706442EC
:103BE000811C00206A460AE023460A2493FBF4F471
:103BF00004EB8406A3EB460302F8013B401C24B20D
:103C0000002CF1DC012806DC4AF02002652A04BF02
:103C1000302201F8012B48B9302001F8010B07E0F0
:103C2000401E1DF80020303201F8012B0028F7DC7F
:103C3000E868AA691044091AE96195F8380000F0AB
:103C4000140010280DD16969A8694118686A4118E3
:103C5000E8694118A86A4118686B8142BCBF411AE3
:103C6000296204B0BDE8F087F8B505460E46174650
:103C70001C46002074B117F8011BB068A847B0605B
:103C800030B1F06A401CF0620020641EF3D1F2BD36
:103C90004FF0FF30F2BD0000686A6C747A4C00008F
:103CA0007072696E74665F733A20256E2064697362
:103CB000616C6C6F776564007072696E74663A202F
:103CC00062616420256E20617267756D656E740097
:103CD0007072696E74665F733A2062616420257346
:103CE00020617267756D656E740000006E616E0014
:103CF0004E414E00696E6600494E4600300000009D
:103D00000278C9B28A421AB11CBF10F8012FF9E734
:103D100018BF00207047000080B500B906A0054913
:103D20000B681BB122220021984701E000F034FC0F
:103D3000222002BD8816FF1F636F6E737472616963
:103D40006E742068616E646C65723A2062616420F2
:103D50006D6573736167650000F10103810704D02D
:103D600010F8011B89B18107FAD10268B2F1013163
:103D7000914311F0803F04BF50F8042FF6E710F88C
:103D8000011B11B110F8011BFBE7C01A70470000BE
:103D9000C9B2830706D0521E22D310F8013B9942C4
:103DA000F7D11FE0083A13D302F1040241EA0121DE
:103DB00041EA014150F8043B121F21BF4B40A3F1DF
:103DC000013C2CEA030C1CF0803FF3D0C9B2001F69
:103DD000083210F8013B521E28BF91EA030FF8D8B1
:103DE00018BF0120401E7047B3BBD9B1B2F5803F68
:103DF0007DD2022A1ED98C46B1FBF2F102FB11C31F
:103E00001B0443EA1043B3FBF2FC02FB1C3380B2F9
:103E100040EA0343B3FBF2F002FB103240EA0C40ED
:103E200000237047022A05D98446B0FBF2F002FB5A
:103E300010C270474AB105D100F0010249085FEA9B
:103E40003000704700220023704700F0A9BB0B0030
:103E50000200002100207047904271EB030CF6D362
:103E6000B3F5803F2FD2F0B5B3FA83F7B1FA81F4FE
:103E7000A7F10F0E3D1B5340CEF1200602FA0EF2C1
:103E8000F3415340B5F10F0746D80F3C2C44414055
:103E9000C4F12006A040F1414140B1FBF3F603FB21
:103EA0001611A2FB0645001BA94102D2761E8018FE
:103EB000594180EA010221FA0EF362FA0EF2002162
:103EC0005A403046F0BD30B4B1FBF3FC03FB1C118B
:103ED000A2FB0C45001BA94103D2ACF1010C8018D8
:103EE000594130BC02460B46604600217047B2F192
:103EF000807F65D3F0B5B2FA82F7B1FA81F4C7F1E9
:103F00000F063D1B22FA06F307F1110EF241203590
:103F10005A40B5F10F07B8D94140C4F12006A0407E
:103F2000F1414140B1FBF3FC03FB1C11A2FB0C452A
:103F3000001BA94103D2BCF1010C801859410F2F7D
:103F400012D30F3FC90341EA5041B1FBF3F603FB23
:103F50001611A2FB0645D4EBC030A94102D2761E51
:103F60008018594146EACC3C07B34140C7F12006CE
:103F7000B840F1414140B1FBF3F603FB1611A2FB3F
:103F80000645001BA94102D2761E8018594180EADD
:103F9000010221FA0EF3C7F1200462FA0EF20CFAC4
:103FA00007F05A402CFA04F13043F0BD80EA0102D8
:103FB00021FA0EF3002162FA0EF260465A40F0BD7B
:103FC0008C46B1FBF2F102FB11C31B0243EA106302
:103FD000B3FBF2FC02FB1C331B024CEA002043EA59
:103FE0001063B3FBF2FC02FB1C331B024CEA002003
:103FF00043EA1063B3FBF2FC02FB1C331B024CEAE6
:10400000002043EA1063B3FBF2FC02FB1C324CEAD3
:104010000020002370470000B0B581EA030C0CF0CB
:10402000004C40F2FF7515EA11541DBF15EA1357F5
:10403000AC42AF4239E0E41923EA455343F480131C
:10404000C90241F0004141EA505EC7021100A7FBDE
:10405000020200284FF00000EEFB01204FF00001AB
:10406000E3FB072118BF42F001024018002149413B
:10407000E3FB0E01A4F580640F0302D2520040411D
:10408000494154F101046CDD470872F1004250F1DE
:10409000000051EB0451A1F580115CBF41EA0C0115
:1040A000B0BD4CEA05510020B0BD05EA1357AC4243
:1040B00014BFAF4241E050EA410E1CBF52EA430E2A
:1040C00002E061460020B0BD24423C441BD15FEABF
:1040D000070EF6D0090302BF01460020AEF1140E10
:1040E000B1FA81F7AEEB070401FA07FE0C37C7F10E
:1040F000200100FA07F7C8404EEA000E23EA4553B4
:1041000043F48013A2E733F00043B3FA83F704BF0C
:10411000B2FA82FE77440B3FE41BB7F1200E2FBFAB
:1041200002FA0EF3BB40C7F1200E22FA0EFE38BF92
:1041300043EA0E03BA40641C82E750EA410E14BF02
:1041400052EA430E6FF000014FF4001717EB430FD4
:104150008ABF194617EB410FB5E74CEA055100201D
:10416000B0BDD4F10104B4F120070FDAC4F1200787
:10417000520828BF42F0010210FA07F501FA07F7CA
:10418000E1BF2A43E0403843E1400FE0352C98DCA2
:10419000C7F1200452EA400220FA07F218BF42F0A9
:1041A000010231FA07F0A1400A43002172F10042F6
:1041B00050F1000051EB0C01B0BD000062B38B0761
:1041C00008D0521E11F8013B00F8013B00F024809A
:1041D0008B07F6D1830740F0208000BF103A07D349
:1041E00030B4B1E83810103AA0E83810F9D230BC39
:1041F000530724BFB1E80810A0E8081044BF51F8E5
:10420000043B40F8043BD20724BF31F8022B20F8CE
:10421000022B44BF0B7803707047121F17D35B004B
:1042200009D151F8043B20F8023B1B0C121F20F867
:10423000023BF6D20BE051F8043B00F8013B1B0AAD
:1042400020F8023B1B0C121F00F8013BF3D238BFD1
:10425000121D521E24BF11F8013B00F8013BF8D893
:104260007047000010B5144600F002F8226010BD3F
:10427000C1F30A5343B14A0012F5001F28D2A3F23A
:10428000FE32A1EB0251704750EA410C20D001F000
:10429000004C31EA0C01B1FA81F204BFB0FA80F3AC
:1042A000D2180B3AB2F120032CBF00FA03F191406F
:1042B00041EA0C013EBFC2F1200C20FA0CF3194375
:1042C0009040524240F2FD33D21A01EB0351704745
:1042D000002270474FF4001C1CEB410F94BF1CEBF5
:1042E000430F09E041EA030C50EA4C0C52EA0C0C73
:1042F00003D2994208BF9042704714BF8B4282425A
:1043000070470000F0B540F2FF7581EA030C0CF035
:10431000004C15EA11541DBF15EA1357AC42AF42C9
:10432000E5E0BC41C1F31301C3F31303801A9941C3
:1043300043F4801304D2641E40004941801859415F
:10434000C90241EA5051B1FBF3F603FB1611A2FB7F
:104350000675D7EBC020A94102D2761E80185941BC
:10436000C90241EA5051B1FBF3FE03FB1E11A2FB4F
:104370000E75D7EBC020A94103D2AEF1010E801813
:104380005941890241EA9051760546EA8E2EB1FBE9
:10439000F3F603FB1611A2FB0675D7EB8020A941AB
:1043A00002D2761E80185941C90241EA50514EEAA4
:1043B000060EB1FBF3F603FB1611A2FB0675D7EB55
:1043C000C020A94102D2761E80185941C90241EA93
:1043D0005051B1FBF3F703FB1711A2FB0735D3EBE9
:1043E000C020A94167F100070CBF004247F0010758
:1043F00066F3D5274FEA1E31B80814F5806412DD44
:10440000BD0775F1004250EB0E5051EB045111F510
:10441000801F5CBF41EA0C01F0BD4CF07F6141F0B0
:10442000E0410020F0BDBD076D0840EA0E5041F4A8
:104430008011D4F10104B4F120060ADAC4F1200697
:104440000200E04001FA06F3E1401843B240154390
:104450000EE0342C13DCC6F1200445EA40056D085B
:1044600020FA06F2154321FA06F0A1400D4300217F
:1044700075F1004250F1000051EB0C01F0BD00203D
:104480005FEA0C01F0BDCFB992185B41B3FA83F734
:1044900004BFB2FA82F6BF190B3FB7F120062FBF57
:1044A00002FA06F3BB40C7F1200622FA06F638BF2F
:1044B0003343BA401CB1E419641E33E77F4231F044
:1044C0000041B1FA81F404BFB0FA80F6A4190B3CA4
:1044D000B4F120062FBF00FA06F1A140C4F1200676
:1044E00020FA06F638BF3143A0403C1B1AE7AC4225
:1044F0001ABF05EA1357AF4212E050EA41061CBF4B
:1045000052EA4306BFE750EA4107304661461CBF06
:1045100041EA0551F0BD52EA430C08BFC143F0BD6A
:1045200000204FF4001616EB410F98BF16EB430F17
:1045300008BF16EB410F24BFC14305E016EB430F44
:104540000CBF61464CEA0551F0BD0000400D491812
:1045500040EA81200CD2490DA1F58061491C40F050
:10456000004005DBD1F11F0154BFC840C0177047A0
:1045700000207047014648B1B0FA80F18840C91C5C
:10458000C1F58461090501EBD021400570470000A9
:1045900000487047240DFF1F012000F003B8000001
:1045A000704700002021090326311820ABBEF9E72F
:1045B0006A6E6B6C676D4E4F3435363728000000DD
:1045C0000F0000002800000032000000AA000000D8
:1045D000A80000006400000001500000000000007E
:1045E000000200000040024000400A400A000000B3
:1045F0007002040000000000140000007C000C02A7
:1046000002020000320000007C00040000000000F4
:104610006400000018000C02020200007D0000008F
:1046200018000A0101010000FA000000180004004F
:1046300000000000F401000004000C02020200006F
:10464000E803000004000102030300000A00000068
:10465000F900100202020000140000007C001002A9
:1046600002020000320000003100100202020000CD
:104670006400000018001002020200007D0000002B
:104680001300100202020000FA00000009001002EC
:1046900002020000F4010000040010020202000007
:1046A000E80300000200080404030000000000000A
:1046B00000000000000000000000000000000000FA
:1046C000000000000000000000004E6F6E4D61739E
:1046D0006B61626C65000000004861726446617540
:1046E0006C740000000000004D656D4D616E6167E7
:1046F000656D656E7400004275734661756C74007B
:1047000000000000000055736167654661756C74B8
:104710000000000000000000000000000000000099
:104720000000000000000000000000000000000089
:104730000000000000000000000000000000000079
:104740000000000000000000000000000000000069
:1047500000535643616C6C00000000000000000034
:1047600044656275674D6F6E69746F72000000007A
:104770000000000000000000000000000000506584
:104780006E6453560000000000000000005379736F
:104790005469636B0000000000000000444D41308C
:1047A0000000000000000000000000444D41310006
:1047B00000000000000000000000444D41320000F5
:1047C000000000000000000000444D4133000000E4
:1047D0000000000000000000444D413400000000D3
:1047E00000000000000000444D41350000000000C2
:1047F000000000000000444D4136000000000000B1
:104800000000000000444D4137000000000000009F
:1048100000000000444D413800000000000000008E
:10482000000000444D41390000000000000000007D
:104830000000444D41313000000000000000000045
:1048400000444D4131310000000000000000000034
:10485000444D4131320000000000000000000044DF
:104860004D41313300000000000000000000444DC5
:1048700041313400000000000000000000444D41C0
:10488000313500000000000000000000444D415F91
:104890004572726F720000000000004D434D000031
:1048A000000000000000000000004654464C0000DC
:1048B000000000000000000000526561645F436F6B
:1048C0006C6C6973696F6E004C56445F4C565700B0
:1048D000000000000000004C4C57000000000000E9
:1048E0000000000000005761746368646F67000097
:1048F0000000000000524E470000000000000000D1
:1049000000000000493243300000000000000000B9
:1049100000000049324331000000000000000000A8
:10492000000053504930000000000000000000006B
:10493000005350493100000000000000000000005A
:104940005350493200000000000000000000004306
:10495000414E305F4F525F4D425F6275660043418A
:104960004E305F4275735F4F666600000043414EF4
:10497000305F4572726F72000000000043414E309C
:104980005F54785F5761726E696E6743414E305F66
:1049900052785F5761726E696E6743414E305F5760
:1049A000616B655F557000000052657365727665D6
:1049B00064353100000000005265736572766564ED
:1049C0003532000000000043414E315F4F525F4DD1
:1049D000425F6275660043414E315F4275735F4FBF
:1049E000666600000043414E315F4572726F72008F
:1049F0000000000043414E315F54785F5761726E92
:104A0000696E6743414E315F52785F5761726E69DC
:104A10006E6743414E315F57616B655F55700000B3
:104A200000526573657276656435390000000000D8
:104A3000526573657276656436300000000000557B
:104A4000415254305F52585F5458000000005541A5
:104A50005254305F45525200000000000055415250
:104A600054315F52585F5458000000005541525471
:104A7000315F45525200000000000055415254324F
:104A80005F52585F54580000000055415254325F45
:104A900045525200000000000055415254335F520D
:104AA000585F54580000000055415254335F45523E
:104AB0005200000000000055415254345F52585FCC
:104AC00054580000000055415254345F4552520082
:104AD000000000000055415254355F52585F545851
:104AE0000000000055415254355F4552520000000D
:104AF00000000041444330000000000000000000BE
:104B000000004144433100000000000000000000AC
:104B100000434D5030000000000000000000000085
:104B2000434D503100000000000000000000004331
:104B30004D5032000000000000000000000046540C
:104B40004D30000000000000000000000046544D01
:104B500031000000000000000000000046544D320B
:104B60000000000000000000000000434D54000061
:104B7000000000000000000000005254430000004C
:104B80000000000000000000005265736572766549
:104B90006438330000000000504954300000000029
:104BA00000000000000000504954310000000000E7
:104BB00000000000000050495432000000000000D6
:104BC00000000000005049543300000000000000C5
:104BD00000000000504442300000000000000000CF
:104BE00000000055534230000000000000000000AB
:104BF0000000555342444344000000000000000000
:104C000000454E45545F313538385F54696D6572E3
:104C1000454E45545F5472616E736D697400004572
:104C20004E45545F52656365697665000000454EE8
:104C300045545F4572726F720000000000493253A4
:104C40003000000000000000000000005344484312
:104C5000000000000000000000000044414330005C
:104C6000000000000000000000004441433100004B
:104C70000000000000000000005453493000000014
:104C800000000000000000004D434700000000004D
:104C9000000000000000004C5054696D6572000077
:104CA0000000000000005265736572766564313063
:104CB0003200000000504F5254410000000000003C
:104CC00000000000504F525442000000000000005D
:104CD000000000504F52544300000000000000004C
:104CE0000000504F5254440000000000000000003B
:104CF00000504F525445000000000000000000002A
:104D00005265736572766564313038000000005278
:104D10006573657276656431303900000000526554
:104D2000736572766564313130000000005265733E
:104D3000657276656431313100000000526573653B
:104D4000727665643131320000000052657365721D
:104D50007665643131330000000052657365727608
:104D60006564313134000000005265736572766508
:104D700064313135000000005265736572766564F8
:104D8000313136000000005265736572766564311A
:104D90003137000000005265736572766564313109
:104DA00038000000005265736572766564313139F0
:104DB00000000000008003400090034000800B4092
:104DC00000F00F4040F00F4080F00F40C0F00F4067
:104DD00000F10F40F0000A1D3000180032001801E9
:104DE000600018186400181A6E00181F7800131855
:104DF0007D00131A8200131C8C000E1296000E15F3
:104E0000A0000E18AA000E1BB4000E1EC8000C1C39
:104E1000E1000B1EFA000A1F00010908009004407F
:104E200000A0044000B0044000C0044000D0044092
:104E300000A0064000B0064000C0064000D006407A
:104E400000A00E4000B00E404100000064000000D1
:104E5000010000000100000001000000010000004E
:104E6000010000000000000001000000010000003F
:104E7000010000000100000001000000010000002E
:104E8000010000000000000001000000010000001F
:104E9000010000000100000001000000010000000E
:104EA00001000000000000000100000002000000FE
:104EB00002000000010000000200000003000000EA
:104EC00001000000347500003475000034750000E6
:104ED000347500003475000034750000347500002E
:104EE000FFFFFFFFFFFFFFFF367500003475000076
:104EF00034750000FFFFFFFFFFFF00000204010107
:104F00008C16FF1FDC16FF1F8C16FF1F8C16FF1F51
:104F1000000000008C16FF1F00000000A00DFF1F06
:104F20008C0DFF1F000000000000000000000000CA
:104F30000000000000000000000000000000000071
:104F40000000000001010000012210F01F018A4052
:104F5000DFF83C1503005BB25B0941F82320704782
:104F60002DE9F84304000D0016001F00DFF82405AA
:104F7000210049B250F82180200040B2002802D020
:104F8000012813D025E0DFF81005006850F010006C
:104F9000DFF8041508604FF400710C20FDF756FD92
:104FA0004FF400710D20FDF751FD17E0DFF8EC0420
:104FB000006850F01000DFF8E41408604FF400714E
:104FC0009820FDF743FD4FF400719920FDF73EFD59
:104FD00004E06321DFF8C804FDF7AFFD380040B2FC
:104FE000002806D1D8F8040050F40050C8F8040096
:104FF0000DE0DFF8B004007850F08000DFF8A41472
:105000000870D8F8040030F40050C8F80400D8F84C
:10501000000020F00040C8F80000D8F8000050F070
:105020008040C8F80000D8F80000C002FBD4D8F8CF
:10503000000050F00070C8F80000D8F80000C0016F
:10504000FBD55FF010094846C0B200281ED0B9F168
:10505000010900204946C9B209014144C1F8800054
:1050600000204946C9B209014144C1F8840000202A
:105070004946C9B209014144C1F8880000204946A7
:10508000C9B209014144C1F88C00DCE75FF430008B
:10509000C8F83400D8F8000030F44070C8F80000B8
:1050A000290049B2200040B200F083F9300040B23C
:1050B000012805D1D8F8040050F48050C8F8040045
:1050C000D8F8000050F48030C8F800001021080023
:1050D000C0B2002808D0491E00200A00D2B208EB56
:1050E0008202C2F88008F2E70020C8F81000002011
:1050F000C8F814000020C8F81800D8F8000030F0F4
:105100008050C8F80000D8F80000C001FBD4D8F8DF
:1051100000000001FBD4BDE8F1832DE9F843040051
:105120000D0016001F00DDF82080DFF86803210065
:1051300049B250F821903800C0B2092804DBC821D8
:10514000DFF85C03FDF7F9FCC6F34070C6F380712D
:10515000090551EA40513800C0B2000410F4702033
:10516000014351F00061280040B200014844C0F8FA
:105170008010C6F3407000280AD0B003800B50F0B6
:105180000050290049B209014944C1F884000BE0EC
:10519000DFF8140310EA864050F00050290049B2AD
:1051A00009014944C1F88400D8F8000001BA2A0076
:1051B00052B212014A44C2F88810D8F804100ABA50
:1051C0002B005BB21B014B44C3F88C203A00D2B2D7
:1051D000120412F4702252F040622B005BB21B01E9
:1051E0004B44C3F88020D9F83000E840C007FAD516
:1051F0000120A840C9F83000BDE8F18330B4DFF8E1
:105200009432040064B253F8244000230D006DB2C0
:105210002D012544C5F88030C2F34073002B18D00F
:1052200093039B0B0D006DB22D012544C5F884300E
:105230005FF400130D006DB22D012544C5F88030D8
:105240005FF084630D006DB22D012544C5F88030F8
:1052500013E0954B13EA82430D006DB22D012544F6
:10526000C5F88430C2F380735B0553F080630D0092
:105270006DB22D012544C5F8803030BC7047F0B5C3
:10528000059D844C060076B254F826600024146014
:105290000C0064B224013444D4F8804014F07064EB
:1052A000B4F1007F02D000241C705DE00C0064B2F9
:1052B00024013444D4F880703F0C17F00F073C00F1
:1052C000E4B2002C02D100241C704DE00C0064B24A
:1052D00024013444D4F88040A4020ED40C0064B2FB
:1052E00024013444D4F88440C4F38A44D2F800C082
:1052F00064F31C0CC2F800C011E00C0064B224017D
:105300003444D4F88440A403A40BD2F800C064F35E
:105310001C0CC2F800C0146854F0005414600C0057
:1053200064B224013444D4F88040E40203D5146804
:1053300054F0804414600C0064B224013444D4F866
:10534000884094FA84FCC5F800C08C464FFA8CFC67
:105350005FEA0C1CB444DCF88CC09CFA8CFEC5F8E7
:1053600004E01F70D6F808E0F0BD70B504000D0031
:105370004848210049B250F821600120A840B0629D
:10538000200040B2002803D11D20FFF7DDFD06E01C
:10539000200040B2012802D12520FFF7D5FD70BDC5
:1053A0003C4A03005BB252F8232001238B40136375
:1053B00070472DE9F04105000E003648290049B23A
:1053C00050F821707868800403D53848D0F8008000
:1053D00001E04CF250384CF25030804508D134484E
:1053E000310049B20C2211FB02F10844040013E021
:1053F0002E4800684EF66021884208D12D483100C1
:1054000049B20C2211FB02F10844040004E040F20E
:105410001A212348FDF791FB3868C00008D438688A
:1054200050F0805038603868C001FCD5002100E0A1
:1054300001217A684FF6F87002407A607868A279A4
:1054400012F00702637A9B0513F440031A43E379D1
:10545000DB0413F460131A43237A1B0413F4E023D0
:105460001A43A38852EA0362104378600800C0B26E
:10547000002809D1386830F0805038603868C001A1
:10548000FCD438680001FCD4BDE8F08100000000C5
:1054900000E100E04404FF1F3C80044030800440F1
:1054A0007C700000005006400000FC1F8416FF1FA7
:1054B0004C04FF1FAC04FF1FDFF800F0190FFF1FA3
:1054C000DFF82414020052B231F82210020052B266
:1054D000012AC0F2AC81020052B2112A80F2A781E7
:1054E0000022DFF808341A700A0092B2312A04DA76
:1054F0000022DFF8F8335A7095E00A0092B2612A70
:1055000004DA0122DFF8E4335A708CE00A0092B228
:10551000912A04DA0222DFF8D4335A7083E00A00B9
:1055200092B2C12A04DA0322DFF8C0335A707AE05B
:105530000A0092B2F12A04DA0422DFF8B0335A707A
:1055400071E00A0092B240F221139A4204DA052275
:10555000DFF898335A7066E00A0092B240F25113B5
:105560009A4204DA0622DFF884335A705BE00A00BC
:1055700092B240F281139A4204DA0722DFF86C33C8
:105580005A7050E00A0092B240F2B1139A4204DA23
:105590000822DFF858335A7045E00A0092B240F210
:1055A000E1139A4204DA0922DFF840335A703AE0F4
:1055B0000A0092B240F211239A4204DA0A22DFF87A
:1055C0002C335A702FE00A0092B240F241239A42E3
:1055D00004DA0B22DFF814335A7024E00A0092B286
:1055E00040F271239A4204DA0C22DFF800335A7039
:1055F00019E00A0092B240F2A1239A4204DA0D2285
:10560000DFF8E8325A700EE00A0092B240F2D1237D
:105610009A4204DA0E22DFF8D4325A7003E00F22E5
:10562000DFF8C8325A700A0092B21A2A03DA00224E
:10563000AE4B9A7079E00A0092B2332A03DA012263
:10564000AA4B9A7071E00A0092B24C2A03DA022245
:10565000A64B9A7069E00A0092B2652A03DA032227
:10566000A24B9A7061E00A0092B27E2A03DA042209
:105670009E4B9A7059E00A0092B2972A03DA0522EB
:105680009A4B9A7051E00A0092B2B02A03DA0622CD
:10569000964B9A7049E00A0092B2C92A03DA0722AF
:1056A000924B9A7041E00A0092B2E22A03DA082291
:1056B0008E4B9A7039E00A0092B2FB2A03DA092273
:1056C0008A4B9A7031E00A0092B2B2F58A7F03DA0F
:1056D0000A22864B9A7028E00A0092B240F22D13FB
:1056E0009A4203DA0B22814B9A701EE00A0092B2B2
:1056F000B2F5A37F03DA0C227C4B9A7015E00A0006
:1057000092B240F25F139A4203DA0D22774B9A70FD
:105710000BE00A0092B2B2F5BC7F03DA0E22734BA3
:105720009A7002E00F22714B9A700A0092B21A2A04
:1057300003DA00226D4BDA7079E00A0092B2332A64
:1057400003DA0122694BDA7071E00A0092B24C2A46
:1057500003DA0222654BDA7069E00A0092B2652A28
:1057600003DA0322614BDA7061E00A0092B27E2A0A
:1057700003DA04225D4BDA7059E00A0092B2972AEC
:1057800003DA0522594BDA7051E00A0092B2B02ACE
:1057900003DA0622554BDA7049E00A0092B2C92AB0
:1057A00003DA0722514BDA7041E00A0092B2E22A92
:1057B00003DA08224D4BDA7039E00A0092B2FB2A74
:1057C00003DA0922494BDA7031E00A0092B2B2F5ED
:1057D0008A7F03DA0A22454BDA7028E00A0092B287
:1057E00040F22D139A4203DA0B22404BDA701EE08E
:1057F0000A0092B2B2F5A37F03DA0C223B4BDA70B7
:1058000015E00A0092B240F25F139A4203DA0D22C9
:10581000364BDA700BE00A0092B2B2F5BC7F03DAC5
:105820000E22324BDA7002E00F22304BDA707047F2
:1058300010B50400200040B2FFF742FE2C4800786B
:1058400010F0FD002A4908702948007850F0100037
:1058500027490870B8202749087027480078C006F3
:10586000FBD425480078C0B2C0F381000228F8D1EB
:105870001E48C3781D4882781C4841781B48007830
:10588000FFF71AFE1848210049B200EB810080782A
:1058900010F01F00194908701348210049B200EBAD
:1058A0008100C07810F01F0050F0400014490870CB
:1058B000114800788006FBD50F4800784006FBD5DC
:1058C0000C48007810F03F000A4908700A48007838
:1058D000C0B2C0F381000328F8D1034864B230F8A5
:1058E0002400C0B210BD0000340CFF1F780CFF1F55
:1058F0000140064000400640064006400440064085
:105900000540064038B504000D00200040B20028D4
:1059100003D0022868D04AD383E0DFF88003006810
:1059200050F08070DFF874130860280040B200283F
:105930000BD0022815D00ED304281ED017D306286A
:1059400027D020D307282AD02FE04FF480614120B0
:10595000FDF77CF82AE04FF440710420FDF776F85B
:1059600024E04FF440710520FDF770F81EE04FF47D
:1059700040710620FDF76AF818E04FF440710720E7
:10598000FDF764F812E04FF480616520FDF75EF8E2
:105990000CE04FF480616620FDF758F806E04FF404
:1059A00080616720FDF752F800E03AE039E0DFF867
:1059B000EC02006850F00070DFF8E0120860280088
:1059C00040B2002802D0012806D00BE04FF440710D
:1059D0000C20FDF73BF806E04FF440710D20FDF779
:1059E00035F800E01DE01CE0DFF8B402006850F07C
:1059F0008070DFF8AC120860280040B2002802D0A6
:105A0000012806D00BE04FF440710A20FDF71EF884
:105A100006E04FF440710B20FDF718F800E000E0BD
:105A2000FFE731BD2DE9F84F04000D0016001F00FF
:105A3000200040B2002810D0200040B2012803D03E
:105A4000200040B2022803D1280040B2022804DB23
:105A5000FC21DFF85002FDF770F8290049B2200060
:105A600040B2FFF74FFFDFF84002D0F800904FF44C
:105A70007A7000FB09F94846000CB0FBF6FA5FF0BB
:105A8000000B504680B250FA0BF0012802DB1BF1EC
:105A9000010BF6E75846C0B2082805DB40F21711A3
:105AA000DFF80002FDF749F8484630FA0BF0B0FB8A
:105AB000F6F0210049B2002903D0022915D00AD3FB
:105AC0001DE0010089B2491C01FB07F16422B1FB12
:105AD000F2F1884613E0010089B2491C01FB07F18D
:105AE0006422B1FBF2F1884609E0010089B2491C49
:105AF00001FB07F16422B1FBF2F18846FFE7DFF812
:105B0000AC11220052B251F822102A0052B201EB1D
:105B1000C201DFF8982123005BB252F823202B004A
:105B20005BB202EBC302D26832F00402CA60DFF853
:105B30007C11220052B251F822102A0052B201EB1D
:105B4000C2012822CA605946C9B211F0070151F0BA
:105B50000801DFF8582123005BB252F823201160BE
:105B6000010089B2DFF8442123005BB252F8232000
:105B700091600021DFF8342123005BB252F823202A
:105B8000D164DFF82811220052B251F822102A0005
:105B900052B201EBC201424692B20A610021DFF823
:105BA0000C2123005BB252F823205160BDE8F18F35
:105BB0002DE9F0410500884616000024280040B277
:105BC000002811D0280040B2012803D0280040B29C
:105BD000022803D1404640B2022805DB4FF4A971E8
:105BE000DFF8C000FCF7A9FF280040B2002803D06E
:105BF000022813D009D31AE0652E05D340F25711BD
:105C0000DFF8A000FCF799FF11E0652E05D340F204
:105C10005B11DFF89000FCF790FF08E0652E05D3DC
:105C200040F25F11DFF87C00FCF787FFFFE7DFF849
:105C30007C00290049B250F8210080680400002C43
:105C4000F5D0280040B2002803D0022811D008D394
:105C500017E0601C00FB06F06421B0FBF1F00700C8
:105C60000FE0601C00FB06F06421B0FBF1F00700C0
:105C700007E0601C00FB06F06421B0FBF1F00700B8
:105C8000FFE7DFF82800290049B250F8210041461B
:105C900049B200EBC1000761BDE8F0813C800440DF
:105CA00030800440447100008416FF1F140CFF1F55
:105CB000012210F01F018A40DFF8E81203005BB2F6
:105CC0005B0941F82320704780B500220121512053
:105CD000FCF7A6FD002201215020FCF7A1FD0022C7
:105CE00001215320FCF79CFD012201215220FCF7E9
:105CF00097FDFCF72CFA01BD80B5002342F210722B
:105D000001210020FFF78EFE002342F210720221D3
:105D10000020FFF787FE002342F2107203210020CB
:105D2000FFF780FE002342F2107204210020FFF7EB
:105D300079FEFFF7C9FF5FF4E1310220FDF716F8A5
:105D40000FF2A101412000F070F93120FFF7B0FF00
:105D50000220FDF745F9002200212120FCF760FD1B
:105D6000002200212220FCF75BFD002200212320DD
:105D7000FCF756FD002200212420FCF751FD0022F3
:105D800000213420FCF74CFD002200213520FCF7D7
:105D900047FD002200213620FCF742FD00220021B1
:105DA0003720FCF73DFD002200214020FCF738FDA4
:105DB000002200210A20FCF733FD002200210B20E5
:105DC000FCF72EFD002200210C20FCF729FD00220B
:105DD00000210D20FCF724FD002200210E20FCF7FD
:105DE0001FFD01BD10B570487049097801440220BB
:105DF000FDF7D6F86C4800786D4908606A4800786D
:105E0000A52803D000206949087004E0674800789D
:105E1000401C6649087065480078052840F0C0803D
:105E200000206249087060484078624908605E4816
:105E30008078614908605C48C078604908605A48C9
:105E400000795F4908605B480068002807D059481E
:105E500001685C480068091A5B48016002E00020A4
:105E60005949086055480068002807D05348016820
:105E700056480068091A5648016002E0002054495B
:105E800008604D48016853480068091A524801608B
