:10000000F8FF002011040000892A0000892A00005E
:10001000892A0000892A0000892A0000892A000014
:10002000892A0000892A0000892A0000892A000004
:10003000892A0000892A0000892A0000892A0000F4
:10004000892A0000892A0000892A0000892A0000E4
:10040000FFFFFFFFFFFFFFFFFFFFFFFFFEFFFFFFFD
:1004100062B603F033FDFEE72DE9F0439FB00FF61F
:10042000BC36269CDFF81C8902918DF83B400021E8
:100430000B914FF0FF37044691461D460AE019F82C
:10044000011B0298A0470028029000F0A4800B989E
:10045000401C0B9099F8000050B12528EFD10020E6
:100460000021059006910790089109900A9103E0F8
:100470000B98A3E041F0010119F8010F2028F9D0F1
:1004800023280CD02B2804D02D2805D0302809D0C3
:1004900083E041F00201EFE741F00401ECE741F0B5
:1004A0000801E9E741F01001E6E700200D900AE0BD
:1004B0000D98404505DA00EB800302EB4302303A29
:1004C0000D9209F1010999F80020A2F130000A28E3
:1004D000EED399F800002E2818BF0C9726D119F8F2
:1004E000010F2A2808D12868286009F1010950F86D
:1004F000042B28600C9219E02D280CBF19F8010B71
:10050000002000220C920BE040B90C9A424505DA1B
:1005100002EB820203EB4203303B0C9309F1010929
:1005200099F80030A3F130020A2AEDD3ADF8381063
:10053000304699F8001000F085FD08B119F8010B5C
:100540008DF83A009DF83A00682804BF99F8001029
:10055000682903D162208DF83A0008E06C2804BFB6
:1005600099F800006C2804D171218DF83A1009F136
:10057000010910A804902A4619F8013B6946204653
:1005800000F05CF838B910AA6946204600F084F9FA
:1005900000287FF55FAF384610E02A2885D12A6809
:1005A0002A6052F8040B2A6000280D9003D54042BF
:1005B0000D9041F0040109F101098AE71FB0BDE87F
:1005C000F083622820D0682811D06A2803D06C28D4
:1005D00027D0712825D10868C01D20F007000860C9
:1005E000D0E9002308300860194610467047002AF9
:1005F0000A680A60106803D0121D0A6000B217E092
:10060000121D0A6080B217E0002A0A680A601068AA
:1006100003D0121D0A6040B20AE0121D0A60C0B287
:100620000AE0002A0A680A60106803D0121D0A60F6
:10063000C1177047121D0A600021704770B51C4633
:100640000D46B4F125002E69114600F013812038C3
:10065000022865D9133841D00B3816D0401E1ED061
:10066000401E02285CD9001F19D0401F00F0838073
:10067000401E33D0401E00F0CD80C01E00F0D88058
:10068000801E2BD0C01E29D0FAE06869421C6A6126
:100690000A680A6052F8043B0A603354FAE095F89D
:1006A0003A000122FFF78DFFC5E9000100239942BE
:1006B00004DA6869411C69612D210DE0288F8107EA
:1006C00004D56869411C69612B2105E0C00722D56A
:1006D0006869411C6961202131541CE095F83A0099
:1006E0000022FFF76EFFC5E9000195F83800010709
:1006F00011D5D5E900230020834208BF82420AD0E9
:1007000044F02000782806D1686930213154401C1B
:10071000411C69613454214668693044E86083E0D3
:100720000868C01D20F007000860D0E900230830E9
:100730000860C5E90023D5E90001C80F04D0686945
:10074000411C69612D210DE0288F810704D568695E
:10075000411C69612B2105E0C00704D56869411C73
:1007600069612021315468693044E8602146284697
:1007700000F0C4F98EE005F13A02507820B14FF054
:10078000FF340FF660005EE01078622808D0682819
:1007900024D06A2812D06C282ED071280ED02BE0DD
:1007A0000A680A6052F8040B0A6020B94FF0FF345F
:1007B0000FF6480047E0E96A01706BE00A680A60DA
:1007C00052F8040B0A6020B94FF0FF340FF62C00EA
:1007D00039E0EA6AD317C0E900235BE00A680A60DF
:1007E00052F8040B0A6020B94FF0FF340FF60C00EA
:1007F00029E0E96A01804DE00A680A6052F8040BBA
:100800000A6020B94FF0FF340FF2F0701BE0E96A84
:1008100001603FE00A680A6052F8040B0A60002198
:10082000C5E90001EE607821284600F0BBF831E010
:100830000868086050F8044B0860EC603CB94FF061
:10084000FF340FF2D07000F009FC201A70BD2E6B3F
:10085000002E04D5204600F021FC044608E0324674
:100860000021204600F036FC002814BF041B34464B
:10087000AC610FE06869411C69612521315409E0D0
:100880006969481C686125227254210002D0411C0C
:1008900069613454002070BD2DE9FC410F460646C5
:1008A000796B7869BC6A091A386A091AB869091A31
:1008B000786A091AF869091A97F838000C1B410779
:1008C00090460FD42021002C8DF800100ADD25461B
:1008D00001236A463946304600F068FB00285DD1A6
:1008E0006D1EF5D17B6942463946304600F05EFB0D
:1008F000002853D130208DF800003D6A002D09DD1D
:1009000001236A463946304600F050FB002845D1A5
:100910006D1EF5D1BB69FA683946304600F046FBDA
:1009200000283BD130208DF800007D6A002D08DDC5
:1009300001236A463946304600F038FB70BB6D1E15
:10094000F6D1F868B969FB6942183946304600F0BB
:100950002DFB18BB30208DF80000BD6A002D08DD8E
:1009600001236A463946304600F020FBB0B96D1EBF
:10097000F6D197F8380041070DD52021002C8DF8CD
:10098000001008DD01236A463946304600F00EFBB0
:1009900020B9641EF6D10020BDE8F6814FF0FF308B
:1009A000BDE8F6812DE9FC4707468A463E69BAF163
:1009B0006F0F08BF082405D04AF02001782914BF22
:1009C0000A2410243C25D7E90023BAF1640F18BF8C
:1009D000BAF1690F9046994606D100218B4203DA9D
:1009E000D8F1000869EB49090020814508BF80451E
:1009F0001FD1386BE8B9082C4CD197F838000107A3
:100A000048D530203B2586F83B0043E000280ED532
:100A100097F8380000F01400102808D17A6B786934
:100A2000121A386A121A511A0029C8BF3962BDE871
:100A3000F3878DF800A0404649462246E31700F0B0
:100A400075FB3032D0B26D1E3A28019504DB9DF85B
:100A50000000A0F151018A187255404649462246CD
:100A6000E31700F063FB804689460020814508BFFC
:100A7000804503D0F86871198842DCD3082C09D16D
:100A800097F83800010705D5715D302902D06D1E39
:100A900030207055C5F13C01B9617019F860386BB0
:100AA0008142B3DA411A39624FF6EF70398F014053
:100AB0003987BDE8F3872DE9D04306460F46144633
:100AC0004FF00008DFF8809212E0E00707D54246B9
:100AD0004B463046394600F041FC06460F4640463C
:100AE000494642464B4600F039FC64108046894630
:100AF000002CEAD130463946BDE8D0832DE9F84FC5
:100B000005468CB0286BD5E9009B00288A4602AFC9
:100B100002D50620286305E001BF4AF020006728BF
:100B200001212963D5E9008460004015401C0DD1E6
:100B300021030BD0AAF1610103201A29A86102D276
:100B40000FF2EC4110E00FF2EC410DE060004015B7
:100B5000401C0ED121030CD1AAF1610103201A29F6
:100B6000A86116D30FF2D441E868032200F0C8FC54
:100B7000E4E024F00043B3F5801F28F0000211D216
:100B80000026B34208BFB242019605D14046214635
:100B900018E00FF2A441E7E701AA4046214600F021
:100BA00003FD08E069486A4900EB135001900C40CE
:100BB000684940462143019B674E47F29752534391
:100BC00093FBF6F6C5E9000120F0000221F0004396
:100BD0000020834204BF8242002300F0A7804846E1
:100BE00059460022002300F017FD38BF8BF0004B60
:100BF0003246D2F10702019603DD5946FFF75BFF4B
:100C00000AE0524200205549FFF755FF02460B46C5
:100C10004846594600F018FD81464AF020000090F1
:100C20006628286B06BF019F0A3706273F18142F36
:100C3000C8BF142730208B468DF808000DF1090637
:100C4000002F34DD4846594600F022FE01460B468F
:100C500006F1080204200A26B3FBF6F606EB86042A
:100C6000A3EB4403303302F8013C0A23B6FBF3F351
:100C700003EB8304A6EB44063036401E02F8026DF7
:100C8000E9D1083F002F02F10806D9DD084600F03F
:100C900013FE02460B464846594600F01BFE304CF8
:100CA0000022234600F05AFB81468B46CAE70DF12D
:100CB0000900361A0DF1090704E00198401E761E5E
:100CC00001907F1C38783028F7D00099662902D12E
:100CD0000198401C03E065290CBF012000202B6B0C
:100CE000C3189E42B8BF731E002B1ED4B34204DA51
:100CF000F85C3528A8BF392000DA302019467A1E62
:100D000002EB010900E05B1E19F801B9491E834599
:100D1000F9D0392802D1785C401C7854002904D5D8
:100D20000198401C17465B1C0190019800B200908E
:100D30001BB23A465146284600F014F80DB0BDE803
:100D4000F08F0000CBCCCC0C0000244002FCFFFF55
:100D5000FFFF0F800000E03FA08601000000F03F91
:100D600084D797412DE9F84783B005468A469146D6
:100D7000984600F021FEB8F1000F406A2F6B06780C
:100D800003DC4FF001080FF2B829BDF930404AF0FA
:100D90002000662808BF641C13D0672840F08F80AD
:100DA00014F1040F7ADBBC4278DA95F83800641C41
:100DB000010702D4B845B8BF474620B23F1A48BF22
:100DC00000270FFA84FAE868A969BAF1000F23DC5A
:100DD0004A1C30234354002F03DC95F838000107E8
:100DE00002D5E8688654521C17EB0A0FB8BF7C4244
:100DF00024B2E71960424745B8BFB846AA616862A5
:100E00000FFA88F4EC61E868AB6922464946184459
:100E100000F076FB3F1B18E022B29045084416DA3A
:100E20004246494600F06CFBA8694044A861AAEB21
:100E30000801002F696203DC95F838100A0704D511
:100E4000E9680E54E869401CE861AF6297E04946E2
:100E500000F056FBA869002F5044A8EB040803DCFF
:100E600095F838100A0702D5E9680E54401CA861AD
:100E70000FFA88F08742E868AB69B8BFB8460FFA46
:100E800088F209EB0A01184400F03AFBA8690FFA4E
:100E900088F10844A861781A686270E0B84504DAFD
:100EA00095F838100A0758BF47467F1E48BF0027ED
:100EB000BAF1670F0CBF4FF0650A4FF0450AA969F8
:100EC000EB68481CA861002F19F8012B5A5403DC69
:100ED00095F838100A0717D5E968431CAB610E5422
:100EE000002F11DDA8F1010630B28742E868B8BFD3
:100EF0003E4632B24946184400F002FBA86936B2B9
:100F00003018BF1BA8616F62E868A9690844002C0B
:100F100080F800A003D42B214170811C03E02D2117
:100F200041706442811C00206A460AE023460A247C
:100F300093FBF4F404EB8406A3EB460302F8013BB5
:100F4000401C24B2002CF1DC012806DC4AF020020F
:100F5000652A04BF302201F8012B48B9302001F87E
:100F6000010B07E0401E1DF80020303201F8012B74
:100F70000028F7DCE868AA691044091AE96195F8C5
:100F8000380000F0140010280DD16969A8694118D3
:100F9000686A4118E8694118A86A4118686B81427B
:100FA000BCBF411A296204B0BDE8F087F8B5054618
:100FB0000E4617461C46002074B117F8011BB06896
:100FC000A847B06030B1F06A401CF0620020641E97
:100FD000F3D1F2BD4FF0FF30F2BD0000686A6C74CF
:100FE0007A4C00007072696E74665F733A20256EE9
:100FF00020646973616C6C6F776564007072696EF0
:1010000074663A2062616420256E20617267756D96
:10101000656E74007072696E74665F733A20626107
:101020006420257320617267756D656E7400000021
:101030006E616E004E414E00696E6600494E46007C
:10104000300000000278C9B28A421AB11CBF10F801
:10105000012FF9E718BF00207047000080B500B9E4
:1010600006A005490B681BB122220021984701E028
:1010700000F0A6FC222002BDFC0A0014636F6E7310
:10108000747261696E742068616E646C65723A2076
:10109000626164206D6573736167650000F101032F
:1010A000810704D010F8011B89B18107FAD10268C9
:1010B000B2F10131914311F0803F04BF50F8042F89
:1010C000F6E710F8011B11B110F8011BFBE7C01A7D
:1010D00070470000C9B2830706D0521E22D310F811
:1010E000013B9942F7D11FE0083A13D302F1040201
:1010F00041EA012141EA014150F8043B121F21BF9E
:101100004B40A3F1013C2CEA030C1CF0803FF3D0D0
:10111000C9B2001F083210F8013B521E28BF91EAE5
:10112000030FF8D818BF0120401E7047B3BBD9B1D8
:10113000B2F5803F7DD2022A1ED98C46B1FBF2F176
:1011400002FB11C31B0443EA1043B3FBF2FC02FB96
:101150001C3380B240EA0343B3FBF2F002FB1032CF
:1011600040EA0C4000237047022A05D98446B0FBB0
:10117000F2F002FB10C270474AB105D100F0010243
:1011800049085FEA3000704700220023704700F0F2
:101190001BBC0B000200002100207047904271EB45
:1011A000030CF6D3B3F5803F2FD2F0B5B3FA83F733
:1011B000B1FA81F4A7F10F0E3D1B5340CEF120068A
:1011C00002FA0EF2F3415340B5F10F0746D80F3C37
:1011D0002C444140C4F12006A040F1414140B1FB04
:1011E000F3F603FB1611A2FB0645001BA94102D230
:1011F000761E8018594180EA010221FA0EF362FA44
:101200000EF200215A403046F0BD30B4B1FBF3FC81
:1012100003FB1C11A2FB0C45001BA94103D2ACF13E
:10122000010C8018594130BC02460B466046002133
:101230007047B2F1807F65D3F0B5B2FA82F7B1FAA8
:1012400081F4C7F10F063D1B22FA06F307F1110ED8
:10125000F24120355A40B5F10F07B8D94140C4F1E9
:101260002006A040F1414140B1FBF3FC03FB1C11FF
:10127000A2FB0C45001BA94103D2BCF1010C801854
:1012800059410F2F12D30F3FC90341EA5041B1FB1F
:10129000F3F603FB1611A2FB0645D4EBC030A941BF
:1012A00002D2761E8018594146EACC3C07B3414031
:1012B000C7F12006B840F1414140B1FBF3F603FB12
:1012C0001611A2FB0645001BA94102D2761E80180A
:1012D000594180EA010221FA0EF3C7F1200462FAB3
:1012E0000EF20CFA07F05A402CFA04F13043F0BD2C
:1012F00080EA010221FA0EF3002162FA0EF2604642
:101300005A40F0BD8C46B1FBF2F102FB11C31B0247
:1013100043EA1063B3FBF2FC02FB1C331B024CEAF2
:10132000002043EA1063B3FBF2FC02FB1C331B02F8
:101330004CEA002043EA1063B3FBF2FC02FB1C33CF
:101340001B024CEA002043EA1063B3FBF2FC02FBF1
:101350001C324CEA0020002370470000B0B581EA3F
:10136000030C0CF0004C40F2FF7515EA11541DBF40
:1013700015EA1357AC42AF4239E0E41923EA45536A
:1013800043F48013C90241F0004141EA505EC702B4
:101390001100A7FB020200284FF00000EEFB012025
:1013A0004FF00001E3FB072118BF42F00102401893
:1013B00000214941E3FB0E01A4F580640F0302D232
:1013C00052004041494154F101046CDD470872F17B
:1013D000004250F1000051EB0451A1F580115CBFB7
:1013E00041EA0C01B0BD4CEA05510020B0BD05EA50
:1013F0001357AC4214BFAF4241E050EA410E1CBF4C
:1014000052EA430E02E061460020B0BD24423C4453
:101410001BD15FEA070EF6D0090302BF0146002088
:10142000AEF1140EB1FA81F7AEEB070401FA07FE34
:101430000C37C7F1200100FA07F7C8404EEA000E4A
:1014400023EA455343F48013A2E733F00043B3FA91
:1014500083F704BFB2FA82FE77440B3FE41BB7F177
:10146000200E2FBF02FA0EF3BB40C7F1200E22FA66
:101470000EFE38BF43EA0E03BA40641C82E750EA0E
:10148000410E14BF52EA430E6FF000014FF40017F3
:1014900017EB430F8ABF194617EB410FB5E74CEA2C
:1014A00005510020B0BDD4F10104B4F120070FDADA
:1014B000C4F12007520828BF42F0010210FA07F5D4
:1014C00001FA07F7E1BF2A43E0403843E1400FE06B
:1014D000352C98DCC7F1200452EA400220FA07F2CA
:1014E00018BF42F0010231FA07F0A1400A4300217F
:1014F00072F1004250F1000051EB0C01B0BD000050
:1015000062B38B0708D0521E11F8013B00F8013B73
:1015100000F024808B07F6D1830740F0208000BFC5
:10152000103A07D330B4B1E83810103AA0E83810B8
:10153000F9D230BC530724BFB1E80810A0E8081066
:1015400044BF51F8043B40F8043BD20724BF31F8B4
:10155000022B20F8022B44BF0B7803707047121F38
:1015600017D35B0009D151F8043B20F8023B1B0C58
:10157000121F20F8023BF6D20BE051F8043B00F8B2
:10158000013B1B0A20F8023B1B0C121F00F8013B19
:10159000F3D238BF121D521E24BF11F8013B00F8D0
:1015A000013BF8D87047000010B5144600F002F86F
:1015B000226010BDC1F30A5343B14A0012F5001F67
:1015C00028D2A3F2FE32A1EB0251704750EA410C3F
:1015D00020D001F0004C31EA0C01B1FA81F204BFD5
:1015E000B0FA80F3D2180B3AB2F120032CBF00FA04
:1015F00003F1914041EA0C013EBFC2F1200C20FAF8
:101600000CF319439040524240F2FD33D21A01EBE1
:1016100003517047002270474FF4001C1CEB410F30
:1016200094BF1CEB430F09E041EA030C50EA4C0C59
:1016300052EA0C0C03D2994208BF9042704714BF83
:101640008B42824270470000F0B540F2FF7581EA9C
:10165000030C0CF0004C15EA11541DBF15EA13578A
:10166000AC42AF42E5E0BC41C1F31301C3F3130345
:10167000801A994143F4801304D2641E400049410A
:1016800080185941C90241EA5051B1FBF3F603FBFE
:101690001611A2FB0675D7EBC020A94102D2761E17
:1016A00080185941C90241EA5051B1FBF3FE03FBD6
:1016B0001E11A2FB0E75D7EBC020A94103D2AEF1DB
:1016C000010E80185941890241EA9051760546EA97
:1016D0008E2EB1FBF3F603FB1611A2FB0675D7EBBA
:1016E0008020A94102D2761E80185941C90241EAE0
:1016F00050514EEA060EB1FBF3F603FB1611A2FBA6
:101700000675D7EBC020A94102D2761E8018594138
:10171000C90241EA5051B1FBF3F703FB1711A2FBD9
:101720000735D3EBC020A94167F100070CBF004289
:1017300047F0010766F3D5274FEA1E31B80814F5C4
:10174000806412DDBD0775F1004250EB0E5051EB85
:10175000045111F5801F5CBF41EA0C01F0BD4CF053
:101760007F6141F0E0410020F0BDBD076D0840EA17
:101770000E5041F48011D4F10104B4F120060ADACC
:10178000C4F120060200E04001FA06F3E1401843EC
:10179000B24015430EE0342C13DCC6F1200445EAB8
:1017A00040056D0820FA06F2154321FA06F0A14023
:1017B0000D43002175F1004250F1000051EB0C0186
:1017C000F0BD00205FEA0C01F0BDCFB992185B417B
:1017D000B3FA83F704BFB2FA82F6BF190B3FB7F131
:1017E00020062FBF02FA06F3BB40C7F1200622FAFB
:1017F00006F638BF3343BA401CB1E419641E33E720
:101800007F4231F00041B1FA81F404BFB0FA80F6B2
:10181000A4190B3CB4F120062FBF00FA06F1A14039
:10182000C4F1200620FA06F638BF3143A0403C1B25
:101830001AE7AC421ABF05EA1357AF4212E050EA6A
:1018400041061CBF52EA4306BFE750EA4107304653
:1018500061461CBF41EA0551F0BD52EA430C08BF86
:10186000C143F0BD00204FF4001616EB410F98BFA6
:1018700016EB430F08BF16EB410F24BFC14305E031
:1018800016EB430F0CBF61464CEA0551F0BD00005A
:10189000400D491840EA81200CD2490DA1F5806124
:1018A000491C40F0004005DBD1F11F0154BFC84086
:1018B000C017704700207047014648B1B0FA80F168
:1018C0008840C91CC1F58461090501EBD0214005A0
:1018D0007047000070B44FF0004591EA030F40F1EB
:1018E00075806B40841A71EB030603D2001BB14173
:1018F000121973414FF4001C1CEB410F34BF7CEBF9
:10190000430442E00C0DA4EB1356352E4FDC45EAA0
:10191000C323DB0A45EAC121C912B6F120050DDD5A
:1019200063FA05F6EB4086EA0305124218BF45F05C
:101930000105C01851F100010CD213E062FA06F55E
:10194000F2405540F3415A40B340F3405A408018AA
:10195000594107D349085FEA30005FEA350528BFDF
:1019600045F0010501F58011420875F1004250F182
:10197000000041EB04514E0016F5001F70BC38BF4B
:1019800070470020090D090570471CEB410F10D26C
:1019900052EA43060BD0BCEB410F05D80C0DAB430C
:1019A000661E342EB6DD02E0AB438018594170BC90
:1019B000704770BC704700000048704778080014FA
:1019C000012000F0B7B8000070470000841A71EBE6
:1019D000030604D26E40001BB141121973414FF44B
:1019E000001C1CEB410F34BF7CEB430682E00C0D66
:1019F000A4EB1356362E7BDC012E45EAC32341DCD3
:101A000043EA525312BFD20292025B08240545EA10
:101A1000C12141EA5051D2EBC020994125D407D1D0
:101A2000B0FA80F610FA06F162D00020203608E005
:101A3000B1FA81F6B140C6F1200220FA02F2114358
:101A4000B0404FEAF474B4EB465434F001064FEA68
:101A500074040AD8D6F50016760D04F00044F04060
:101A600061FA06F25040F1404840C00A40EA415055
:101A700021F0004128BF5FEA500550F1000044EB1F
:101A8000D12135E0DB0A45EAC121C90AB6F12005BA
:101A90000EDD42EA0242120CC5F1200603FA06F6F8
:101AA000EB4042EA06056D42984161F100010DE00C
:101AB00062FA06F5F240554063FA06FC82EA0C022F
:101AC000F3405A406D42904161EB030111F4801FD5
:101AD00005D1641E620502D06D004041494121F4E8
:101AE0008011430875F1004350F1000041EB0451AF
:101AF00070BC70471CEB410F15D223F0004352EA33
:101B000043060BD04FEA4C0CBCEB410F04D80C0D34
:101B1000661E342EB7DDEBE7801A994150EA410684
:101B200008BF0021E4E708BF1CEB430F28BF6FF09C
:101B30000001DDE72021090326311820ABBEF9E7BB
:101B40006A6E6B6C676D4E4F34353637004002401D
:101B500000400A400A00000070020400000000007B
:101B6000140000007C000C020202000032000000A1
:101B70007C000400000000006400000018000C025B
:101B8000020200007D00000018000A0101010000AF
:101B9000FA0000001800040000000000F40100003A
:101BA00004000C0202020000E8030000040001022D
:101BB000030300000A000000F90010020202000006
:101BC000140000007C00100202020000320000003D
:101BD0003100100202020000640000001800100230
:101BE000020200007D00000013001002020200004B
:101BF000FA0000000900100202020000F4010000D7
:101C00000400100202020000E803000002000804C1
:101C100004030000000000000000000000000000BD
:101C200000000000000000000000000000000000B4
:101C300000004E6F6E4D61736B61626C6500000059
:101C400000486172644661756C7400000000000019
:101C50004D656D4D616E6167656D656E7400004226
:101C600075734661756C74000000000000005573C8
:101C70006167654661756C7400000000000000003B
:101C80000000000000000000000000000000000054
:101C90000000000000000000000000000000000044
:101CA0000000000000000000000000000000000034
:101CB000000000000000000000535643616C6C00FF
:101CC000000000000000000044656275674D6F6E03
:101CD00069746F7200000000000000000000000046
:101CE00000000000000050656E64535600000000C4
:101CF00000000000005379735469636B000000001A
:101D000000000000444D41300000000000000000D1
:101D1000000000444D4131000000000000000000C0
:101D20000000444D413200000000000000000000AF
:101D300000444D413300000000000000000000009E
:101D4000444D413400000000000000000000004449
:101D50004D41350000000000000000000000444D2F
:101D600041360000000000000000000000444D412A
:101D7000370000000000000000000000444D413822
:101D80000000000000000000000000444D41390048
:101D900000000000000000000000444D4131300010
:101DA000000000000000000000444D4131310000FF
:101DB0000000000000000000444D413132000000EE
:101DC00000000000000000444D41313300000000DD
:101DD000000000000000444D4131340000000000CC
:101DE0000000000000444D413135000000000000BB
:101DF00000000000444D415F4572726F72000000A8
:101E00000000004D434D00000000000000000000F5
:101E100000004654464C0000000000000000000096
:101E200000526561645F436F6C6C6973696F6E002B
:101E30004C56445F4C565700000000000000004C18
:101E40004C57000000000000000000000000576137
:101E5000746368646F6700000000000000524E4722
:101E60000000000000000000000000004932433084
:101E70000000000000000000000000493243310073
:101E80000000000000000000000053504930000036
:101E90000000000000000000005350493100000025
:101EA0000000000000000000535049320000000014
:101EB0000000000000000043414E305F4F525F4D74
:101EC000425F6275660043414E305F4275735F4FFB
:101ED000666600000043414E305F4572726F7200CB
:101EE0000000000043414E305F54785F5761726ECE
:101EF000696E6743414E305F52785F5761726E6919
:101F00006E6743414E305F57616B655F55700000EF
:101F1000005265736572766564353100000000001B
:101F200052657365727665643532000000000043C7
:101F3000414E315F4F525F4D425F627566004341D3
:101F40004E315F4275735F4F666600000043414E3D
:101F5000315F4572726F72000000000043414E31E4
:101F60005F54785F5761726E696E6743414E315FAF
:101F700052785F5761726E696E6743414E315F57A9
:101F8000616B655F55700000005265736572766520
:101F9000643539000000000052657365727665642F
:101FA0003630000000000055415254305F52585FF7
:101FB00054580000000055415254305F45525200C1
:101FC000000000000055415254315F52585F545890
:101FD0000000000055415254315F4552520000004C
:101FE00000000055415254325F52585F545800006F
:101FF000000055415254325F45525200000000002B
:102000000055415254335F52585F5458000000004D
:1020100055415254335F45525200000000000055B4
:10202000415254345F52585F5458000000005541EB
:102030005254345F45525200000000000055415296
:1020400054355F52585F54580000000055415254B7
:10205000355F45525200000000000041444330000B
:102060000000000000000000000041444331000077
:10207000000000000000000000434D503000000050
:102080000000000000000000434D5031000000003F
:1020900000000000000000434D503200000000002E
:1020A00000000000000046544D3000000000000019
:1020B000000000000046544D310000000000000008
:1020C0000000000046544D320000000000000000F7
:1020D000000000434D54000000000000000000001C
:1020E0000000525443000000000000000000000007
:1020F0000052657365727665643833000000000035
:102100005049543000000000000000000000005062
:102110004954310000000000000000000000504958
:10212000543200000000000000000000005049543C
:102130003300000000000000000000005044423066
:102140000000000000000000000000555342300075
:1021500000000000000000000000555342444344CA
:10216000000000000000000000454E45545F31357E
:1021700038385F54696D6572454E45545F547261DD
:102180006E736D69740000454E45545F526563651A
:10219000697665000000454E45545F4572726F7266
:1021A0000000000000493253300000000000000031
:1021B00000000000534448430000000000000000FD
:1021C0000000004441433000000000000000000017
:1021D0000000444143310000000000000000000006
:1021E00000545349300000000000000000000000CF
:1021F0004D43470000000000000000000000004CBC
:102200005054696D657200000000000000005265C6
:1022100073657276656431303200000000504F52B1
:10222000544100000000000000000000504F5254D4
:102230004200000000000000000000504F525443D4
:1022400000000000000000000000504F5254440005
:10225000000000000000000000504F5254450000F4
:10226000000000000000000052657365727665642E
:102270003130380000000052657365727665643154
:102280003039000000005265736572766564313143
:10229000300000000052657365727665643131313B
:1022A000000000005265736572766564313132005A
:1022B0000000005265736572766564313133000049
:1022C0000000526573657276656431313400000038
:1022D0000052657365727665643131350000000027
:1022E00052657365727665643131360000000052C4
:1022F00065736572766564313137000000005265A0
:102300007365727665643131380000000052657380
:1023100065727665643131390000000000F00F40CD
:1023200040F00F4080F00F40C0F00F4000F10F4030
:1023300066000A1D32000701640007106E000406E3
:10234000780004088200040A8C00040C9600040E35
:10235000A0000410AA000412B4000414BE00041665
:10236000C8000418D200041ADC00041CE100041D9B
:10237000E600041EEB00041FF4000317FA00031824
:10238000130101062C010214000109080090044009
:1023900000A0044000B0044000C0044000D004404D
:1023A00000A0064000B0064000C0064000D0064035
:1023B00000A00E4000B00E403C4300003C43000033
:1023C0003C4300003C4300003C4300003C43000011
:1023D0003C430000FFFFFFFFFFFFFFFF3E43000005
:1023E0003C4300003C430000FFFFFFFFFFFF0000F5
:1023F00002040101000B0014500B0014000B001428
:10240000000B001400000000000B0014000000008E
:10241000F4080014E00800140000000000000000B0
:1024200000000000000000000000000000000000AC
:102430000000000000000000012210F01F018A408F
:10244000DFF8581403005BB25B0941F823207047A2
:102450002DE9F84304000D0016001F00DFF84004CA
:10246000210049B250F82180200040B2002802D05B
:10247000012813D025E0DFF82C04006850F010008C
:10248000DFF8201408604FF400710C2000F01AFAF5
:102490004FF400710D2000F015FA17E0DFF8080482
:1024A000006850F01000DFF8001408604FF400716D
:1024B000982000F007FA4FF40071992000F002FA1A
:1024C00004E06321DFF8E40300F073FA380040B25F
:1024D000002806D1D8F8040050F40050C8F80400D1
:1024E0000DE0DFF8CC03007850F08000DFF8C01377
:1024F0000870D8F8040030F40050C8F80400D8F888
:10250000000020F00040C8F80000D8F8000050F0AB
:102510008040C8F80000D8F80000C002FBD4D8F80A
:10252000000050F00070C8F80000D8F80000C001AA
:10253000FBD55FF010094846C0B200281ED0B9F1A3
:10254000010900204946C9B209014144C1F880008F
:1025500000204946C9B209014144C1F88400002065
:102560004946C9B209014144C1F8880000204946E2
:10257000C9B209014144C1F88C00DCE75FF43000C6
:10258000C8F83400D8F8000030F44070C8F80000F3
:10259000290049B2200040B200F012F9300040B2E8
:1025A000012805D1D8F8040050F48050C8F8040080
:1025B000D8F8000050F48030C8F80000102108005E
:1025C000C0B2002808D0491E00200A00D2B208EB91
:1025D0008202C2F88008F2E70020C8F8100000204C
:1025E000C8F814000020C8F81800D8F8000030F02F
:1025F0008050C8F80000D8F80000C001FBD4D8F81B
:1026000000000001FBD4BDE8F18330B4DFF8903264
:10261000040064B253F8244000230D006DB22D0174
:102620002544C5F88030C2F34073002B18D09303C3
:102630009B0B0D006DB22D012544C5F884305FF46D
:1026400000130D006DB22D012544C5F880305FF0F8
:1026500084630D006DB22D012544C5F8803013E070
:10266000944B13EA82430D006DB22D012544C5F849
:102670008430C2F380735B0553F080630D006DB24C
:102680002D012544C5F8803030BC7047F0B5059D5C
:10269000834C060076B254F82660002414600C00C7
:1026A00064B224013444D4F8804014F07064B4F16E
:1026B000007F02D000241C705DE00C0064B2240195
:1026C0003444D4F880703F0C17F00F073C00E4B29C
:1026D000002C02D100241C704DE00C0064B22401D7
:1026E0003444D4F88040A4020ED40C0064B2240117
:1026F0003444D4F88440C4F38A44D2F800C064F36C
:102700001C0CC2F800C011E00C0064B22401344477
:10271000D4F88440A403A40BD2F800C064F31C0CCA
:10272000C2F800C0146854F0005414600C0064B285
:1027300024013444D4F88040E40203D5146854F0F2
:10274000804414600C0064B224013444D4F88840FE
:1027500094FA84FCC5F800C08C464FFA8CFC5FEA02
:102760000C1CB444DCF88CC09CFA8CFEC5F804E068
:102770001F70D6F808E0F0BD70B504000D004848A1
:10278000210049B250F821600120A840B062200029
:1027900040B2002803D11D20FFF74EFE06E02000C6
:1027A00040B2012802D12520FFF746FE70BD3C4A09
:1027B00003005BB252F8232001238B401363704760
:1027C0002DE9F04105000E003548290049B250F8C6
:1027D00021707868800403D53748D0F8008001E084
:1027E0004CF250384CF25030804508D1334831001B
:1027F00049B20C2211FB02F10844040013E02E48F8
:1028000000684EF66021884208D12D48310049B257
:102810000C2211FB02F10844040004E040F21A21EA
:10282000224800F0C6F83868C00008D4386850F074
:10283000805038603868C001FCD5002100E00121DB
:102840007A684FF6F87002407A607868A27912F0E0
:102850000702637A9B0513F440031A43E379DB0410
:1028600013F460131A43237A1B0413F4E0231A436E
:10287000A38852EA0362104378600800C0B20028BF
:1028800009D1386830F0805038603868C001FCD415
:1028900038680001FCD4BDE8F081000000E100E0F0
:1028A0000C0000143C800440308004404040000094
:1028B000005006400000FC1FF80A00141400001429
:1028C0007400001410B42E4A13684FF40074020010
:1028D000D2B2520994402343294A1360294A030083
:1028E000DBB25B1152F82330012410F01F02944038
:1028F000C3F8A040234A0300DBB25B1152F8232047
:102900000300DBB213F01F0342F8231010BC704722
:1029100010B41B4A13684FF400740200D2B252097B
:1029200094402343164A1360164A0300DBB25B113E
:1029300052F82330012410F01F029440C3F8A04045
:1029400031F4E0610F4A0300DBB25B1152F823203F
:102950000300DBB213F01F0352F8232012F4E062ED
:102960001143084A0300DBB25B1152F82320030035
:10297000DBB213F01F0342F8231010BC70470000B5
:10298000388004404C080014DFF800F021090014DE
:10299000DFF800F03D090014BFF34F8F474801688E
:1029A00011F4E0614648014344480160BFF34F8F92
:1029B000FEE738B504000D00002000F08FF82A0073
:1029C0002100404800F0B6F8002000F0A7F84FF4CE
:1029D0007A7000F0EFF8F2E738B504000D0021003E
:1029E00049B2032000F00CFA200032BD10B50024DB
:1029F000042000F021FA042000F05AFA002842D105
:102A0000002000F06BF8042000F052FA012801D1F8
:102A100001200400002000F081F82B4800F08AF823
:102A20004FF4FA7000F0C6F82000C0B20128EAD1D5
:102A3000042000F03DFA0028E5D1042000F038FA27
:102A4000002806D1002000F069F8642000F0B2F8F8
:102A5000F3E7042000F02CFA012806D1002000F052
:102A60005DF8322000F0A6F8F3E7184800F062F8AD
:102A7000FFF78AFF642000F09DF80020FFF788FF31
:102A8000FFF78AFFBFE710BD10B5114804680120A9
:102A900000F024F8012000F041F80E492200D2B2E3
:102AA0000F2042430A442100C9B20B4800F042F80B
:102AB0004FF47A7000F07EF8ECE700000CED00E0D7
:102AC0000400FA057042000018430000A442000010
:102AD00004ED00E0D40000140C42000010B5040026
:102AE000200040B2042808DA012201211048230006
:102AF0005BB2C05C00F0F4F90FE004200400200099
:102B0000441E40B2002808D00122012108482300B9
:102B10005BB2C05C00F0E4F9F1E710BD10B5040051
:102B20000348210049B2405C00F03BFA10BD0000B0
:102B3000080000140EB4C0B5024603A8002101909D
:102B4000009101AB0121044878440C30FDF764FC8E
:102B500006BC5DF810FB00BF9F17000010B41149C0
:102B6000096851F080710F4A11600F49096851F0EE
:102B700001010D4A11600D490A680D4909684FF4B9
:102B80007A7391FBF3F303FB00F39918914203D29C
:102B9000064C2468A142FBD3044C24688C42FBD32E
:102BA00010BC7047FCED00E0001000E0041000E0F5
:102BB000F00A001410B504002000441E002804D0C0
:102BC0004FF47A70FFF7CAFFF6E710BD2DE9F04128
:102BD00004000D00200040B2002808D002282CD0AC
:102BE00018D304284FD03BD305285FD071E0DFF81D
:102BF0003002006850F48060DFF8241208604FF45F
:102C000040716620FFF75EFE4FF440716720FFF7CA
:102C100059FE5EE0DFF80802006850F40060DFF85B
:102C2000001208604FF440714320FFF74BFE4FF451
:102C300040714420FFF746FE4BE0DFF8E4010068F6
:102C400050F48050DFF8D81108604FF440716320D1
:102C5000FFF738FE4FF440716220FFF733FE38E093
:102C6000DFF8BC01006850F40050DFF8B4110860D0
:102C70004FF440715020FFF725FE4FF44071512072
:102C8000FFF720FE25E0DFF89C01006850F480602B
:102C9000DFF8901108604FF440714E20FFF712FEEC
:102CA0004FF440714F20FFF70DFE12E0DFF8740182
:102CB000006850F40060DFF86C1108604FF4407158
:102CC0008920FFF7FFFD4FF440718820FFF7FAFDE0
:102CD000FFE7DFF85401210049B250F82100C07825
:102CE00010F0F300DFF84011220052B251F8221028
:102CF000C870DFF83401210049B250F82100807813
:102D0000DFF82411220052B251F8221088702000FE
:102D100040B2002803D0200040B2012806D1DFF8DD
:102D20000C0106684FF47A70464305E0DFF80001B5
:102D300006684FF47A7046432801B6FBF0F7380076
:102D400080B2B0F5005F02DB41F6FF700700B6FB12
:102D5000F5F8380080B2B8EB0018404680B2202861
:102D600005DB40F20311DFF8CC00FFF722FE2E480E
:102D7000210049B250F82100007810F0E000C7F3BC
:102D800004210143284A23005BB252F8232011702A
:102D90002549220052B251F822104F7022492200D8
:102DA00052B251F82210897A11F0E00118F01F0296
:102DB0000A431D4BA4464FFA8CFC53F82C309A72F0
:102DC000194A23005BB252F82320127C52F0880289
:102DD000154BA4464FFA8CFC53F82C301A74124A47
:102DE00023005BB252F82320D27852F00C020E4B33
:102DF000A4464FFA8CFC53F82C30DA70BDE8F08111
:102E0000094A03005BB252F8232012791206F7D563
:102E1000054A03005BB252F82320D17170470000CD
:102E2000348004402880044060080014F00A001434
:102E3000F80A00140841000010B50400200040B258
:102E400008280FDA00220021244823005BB2C05C6E
:102E500000F046F803212148220052B2805CFFF7BF
:102E600057FD16E0082004002000441E40B2002850
:102E70000FD000220021194823005BB2C05C00F093
:102E80002FF803211548220052B2805CFFF740FD65
:102E9000EAE710BD10B504001048210049B2405CBB
:102EA00000F09DF8002801D1002000E0012010BDB5
:102EB00010B50400200040B2FFF7ECFF00280AD153
:102EC0000A20FFF777FE200040B2FFF7E3FF00285B
:102ED00001D1002000E0012010BD0000000000141E
:102EE00070B504000D0016004FF480712000C0B2D0
:102EF000FFF7E8FC280040B2002813D14848210021
:102F0000C9B2491150F8211045482200D2B25211DD
:102F100050F822004269012314F01F0083409A43B5
:102F20004A613DE03E482100C9B2491150F82110E4
:102F30003B482200D2B2521150F8220042690123CC
:102F400014F01F0083401A434A613000C0B20028C9
:102F500013D133482100C9B2491150F8210001684A
:102F6000012214F01F00824091432D482200D2B26A
:102F7000521150F82200016012E029482100C9B224
:102F8000491150F821000168012214F01F0082400D
:102F9000114323482200D2B2521150F8220001609E
:102FA00070BD10B504001E482100C9B2491150F887
:102FB0002100406914F01F01C840C00703D47B21E1
:102FC0001848FFF7F6FC16482100C9B2491150F81D
:102FD0002110012214F01F008240CA6010BD10B5FC
:102FE00004000F482100C9B2491150F8210040697E
:102FF00014F01F01C840C00703D58C210948FFF712
:10300000D8FC07482100C9B2491150F821000069D5
:1030100014F01F04E04010F0010010BD000000009B
:10302000DC070014A440000001000822DFF8E002E1
:10303000006850F40020DFF8D832186000BFDFF8D5
:10304000D002006830F48030DFF8C432186000BF6E
:103050001000421EC0B2002825D0080608D5DFF8AF
:10306000B002006850F40030DFF8A432186007E0C6
:10307000DFF89C02006830F40030DFF8943218600A
:10308000DFF88C02006850F48030DFF8843218607A
:1030900000BFDFF87C02006830F48030DFF8703267
:1030A00018604900D4E7704701000822DFF8600289
:1030B000006830F40020DFF858321860DFF8500262
:1030C000006830F48030DFF8483218601000421E8B
:1030D000C0B2002825D0080608D5DFF83402006801
:1030E00050F40030DFF82832186007E0DFF82002E3
:1030F000006830F40030DFF818321860DFF8100292
:10310000006850F48030DFF80832186000BFDFF844
:103110000002006830F48030DFF8F43118604900B4
:10312000D4E7704738B504000D00B5F15000C0B2C7
:10313000FFF7BAFF2000C0B2000950F01000C0B283
:10314000FFF7B2FF14F00F00FFF7AEFF31BD70B50F
:10315000040000252800C0B2082818DAB5F1500094
:10316000C0B2FFF7A1FF0120FFF79EFF1020FFF77D
:103170009BFF002006003000C0B2802805DA200046
:10318000C0B2FFF751FF761CF5E76D1CE2E770BD9A
:10319000010089B2002909D043F226410A0011003A
:1031A0004A1E89B20029FAD1401EF1E7704780B566
:1031B0004FF48070DFF85C1108604FF48070DFF826
:1031C000581108604FF48070DFF8501108604FF418
:1031D0008070DFF84C1108605FF47020DFF8441154
:1031E0000860DFF82C01006850F48030DFF820110F
:1031F0000860DFF81C01006830F48020DFF810114F
:1032000008603220FFF7C4FFDFF80401006850F4C3
:103210008020DFF8FC100860AE20FFF745FF00209B
:10322000FFF742FF1020FFF73FFF4020FFF73CFF72
:103230008120FFF739FFCF20FFF736FFA120FFF7EE
:1032400033FFC820FFF730FFA620FFF72DFFA8208F
:10325000FFF72AFF3F20FFF727FFD320FFF724FFC8
:103260000020FFF721FFD520FFF71EFF8020FFF78A
:103270001BFFD920FFF718FFF120FFF715FFDA2019
:10328000FFF712FF1220FFF70FFFDB20FFF70CFF05
:103290004020FFF709FF2020FFF706FF0220FFF77D
:1032A00003FF8D20FFF700FF1420FFF7FDFEA42091
:1032B000FFF7FAFEA620FFF7F7FEAF20FFF7F4FEB8
:1032C0000020FFF744FF00210020FFF72BFF01BD86
:1032D000F8B504000D0016002900C9B22000C0B2E4
:1032E000FFF720FF203E00273800C0B206280DDA85
:1032F0000D49320092B20620424301EB0200390030
:10330000C9B2405CFFF790FE7F1CEDE7F1BD000005
:1033100080F00F4040B0044044B0044048B0044046
:103320004CB0044094F00F40DC38000070B504004D
:103330000D001600300000B2002854D536B2764297
:103340002D222900C9B22000C0B2FFF7C1FF300012
:1033500000B242F2107190FBF1F201FB12004FF447
:103360007A7190FBF1F2303292B22900C9B2A01DFD
:10337000C0B2FFF7ADFF300000B24FF47A7190FB9E
:10338000F1F201FB1200642190FBF1F2303292B2B3
:103390002900C9B214F10C00C0B2FFF799FF300048
:1033A00000B2642190FBF1F201FB12000A2190FBB4
:1033B000F1F2303292B22900C9B214F11200C0B257
:1033C000FFF786FF320012B20A2092FBF0F100FBF9
:1033D0001122303292B22900C9B214F11800C0B2E1
:1033E000FFF776FF51E020222900C9B22000C0B2C9
:1033F000FFF76EFF300000B242F2107190FBF1F265
:1034000001FB12004FF47A7190FBF1F2303292B26C
:103410002900C9B2A01DC0B2FFF75AFF300000B2A8
:103420004FF47A7190FBF1F201FB1200642190FBE2
:10343000F1F2303292B22900C9B214F10C00C0B2DC
:10344000FFF746FF300000B2642190FBF1F201FB70
:1034500012000A2190FBF1F2303292B22900C9B277
:1034600014F11200C0B2FFF733FF320012B20A208B
:1034700092FBF0F100FB1122303292B22900C9B266
:1034800014F11800C0B2FFF723FF70BDDFF800F0A1
:10349000910A0014DFF82814020052B231F8221009
:1034A000020052B2012AC0F2AE81020052B2162AC4
:1034B00080F2A9810022DFF80C341A700A0092B25F
:1034C0003D2A04DA0022DFF8FC335A7097E00A0044
:1034D00092B2792A04DA0122DFF8E8335A708EE0DA
:1034E0000A0092B2B52A04DA0222DFF8D8335A7001
:1034F00085E00A0092B2F12A04DA0322DFF8C4332D
:103500005A707CE00A0092B240F22D139A4204DA1B
:103510000422DFF8B0335A7071E00A0092B240F230
:1035200069139A4204DA0522DFF898335A7066E08C
:103530000A0092B240F2A5139A4204DA0622DFF89A
:1035400084335A705BE00A0092B240F2E1139A426F
:1035500004DA0722DFF86C335A7050E00A0092B2A6
:1035600040F21D239A4204DA0822DFF858335A70D9
:1035700045E00A0092B240F259239A4204DA092245
:10358000DFF840335A703AE00A0092B240F29523D5
:103590009A4204DA0A22DFF82C335A702FE00A002C
:1035A00092B240F2D1239A4204DA0B22DFF81433AC
:1035B0005A7024E00A0092B240F20D339A4204DAC3
:1035C0000C22DFF800335A7019E00A0092B240F280
:1035D00049339A4204DA0D22DFF8E8325A700EE0DD
:1035E0000A0092B240F285339A4204DA0E22DFF8E2
:1035F000D4325A7003E00F22DFF8C8325A700A0042
:1036000092B21A2A03DA0022AE4B9A7079E00A00CD
:1036100092B2332A03DA0122AA4B9A7071E00A00AF
:1036200092B24C2A03DA0222A64B9A7069E00A0091
:1036300092B2652A03DA0322A24B9A7061E00A0073
:1036400092B27E2A03DA04229E4B9A7059E00A0055
:1036500092B2972A03DA05229A4B9A7051E00A0037
:1036600092B2B02A03DA0622964B9A7049E00A0019
:1036700092B2C92A03DA0722924B9A7041E00A00FB
:1036800092B2E22A03DA08228E4B9A7039E00A00DD
:1036900092B2FB2A03DA09228A4B9A7031E00A00BF
:1036A00092B2B2F58A7F03DA0A22864B9A7028E03A
:1036B0000A0092B240F22D139A4203DA0B22814B98
:1036C0009A701EE00A0092B2B2F5A37F03DA0C22D0
:1036D0007C4B9A7015E00A0092B240F25F139A4256
:1036E00003DA0D22774B9A700BE00A0092B2B2F522
:1036F000BC7F03DA0E22734B9A7002E00F22714BEB
:103700009A700A0092B21A2A03DA00226D4BDA701C
:1037100079E00A0092B2332A03DA0122694BDA70A7
:1037200071E00A0092B24C2A03DA0222654BDA7089
:1037300069E00A0092B2652A03DA0322614BDA706B
:1037400061E00A0092B27E2A03DA04225D4BDA704D
:1037500059E00A0092B2972A03DA0522594BDA702F
:1037600051E00A0092B2B02A03DA0622554BDA7011
:1037700049E00A0092B2C92A03DA0722514BDA70F3
:1037800041E00A0092B2E22A03DA08224D4BDA70D5
:1037900039E00A0092B2FB2A03DA0922494BDA70B7
:1037A00031E00A0092B2B2F58A7F03DA0A22454B71
:1037B000DA7028E00A0092B240F22D139A4203DA3E
:1037C0000B22404BDA701EE00A0092B2B2F5A37FE2
:1037D00003DA0C223B4BDA7015E00A0092B240F299
:1037E0005F139A4203DA0D22364BDA700BE00A00BF
:1037F00092B2B2F5BC7F03DA0E22324BDA7002E0ED
:103800000F22304BDA70704710B50400200040B230
:10381000FFF740FE2C48007810F0FD002A490870A0
:103820002948007850F0100027490870B82027492F
:10383000087027480078C006FBD425480078C0B23D
:10384000C0F381000228F8D11E48C3781D48827851
:103850001C4841781B480078FFF718FE18482100E3
:1038600049B200EB8100807810F007001949087018
:103870001348210049B200EB8100C07810F01F000E
:1038800050F0400014490870114800788006FBD5BC
:103890000F4800784006FBD50C48007810F03F0038
:1038A0000A4908700A480078C0B2C0F381000328B2
:1038B000F8D1034864B230F82400C0B210BD000053
:1038C000F00700144808001401400640004006407C
:1038D0000640064004400640054006400000000047
:1038E00000000000002F0000000007000700001487
:1038F0007F147F1400242A7F2A1200626408132395
:1039000000364955225000000503000000001C222B
:103910004100000041221C000014083E0814000869
:10392000083E0808000000A0600000080808080819
:10393000000060600000002010080402003E5149B1
:10394000453E0000427F400000426151494600214F
:1039500041454B31001814127F1000274545453969
:10396000003C4A49493000017109050300364949C4
:10397000493600064949291E00003636000000007D
:1039800056360000000814224100001414141414C8
:103990000000412214080002015109060032495971
:1039A000513E007C1211127C007F49494936003E8D
:1039B00041414122007F4141221C007F4949494148
:1039C000007F09090901003E4149497A007F080842
:1039D000087F0000417F4100002040413F01007FFF
:1039E00008142241007F40404040007F020C027FCB
:1039F000007F0408107F003E4141413E007F0909DD
:103A00000906003E4151215E007F09192946004602
:103A1000494949310001017F0101003F4040403FD9
:103A2000001F2040201F003F4038403F0063140823
:103A300014630007087008070061514945430000FE
:103A40007F41410000552A552A55000041417F0021
:103A50000004020102040040404040400000010216
:103A60000400002054545478007F484444380038FF
:103A70004444442000384444487F00385454541887
:103A800000087E0901020018A4A4A47C007F080499
:103A900004780000447D4000004080847D00007F69
:103AA000102844000000417F4000007C0418047886
:103AB000007C0804047800384444443800FC242482
:103AC00024180018242418FC007C0804040800486A
:103AD0005454542000043F444020003C4040207C8B
:103AE000001C2040201C003C4030403C004428107A
:103AF0002844001CA0A0A07C004464544C4414142E
:103B000014141414DFF800F0B3290000F020544915
:103B10000870534800780006FBD55148007810F033
:103B2000710F01D0002000E0012070474D4800686F
:103B300050F400204B490860494800780006FBD546
:103B4000F0204749087070471CB50400210089B275
:103B50004FF48050414300910920434908709DF87B
:103B60000200424908709DF80100414908709DF823
:103B7000000040490870FFF7C9FF002801D100206C
:103B80000FE0200080B200280AD15FF0FF327FF002
:103B900001034FF48161200080B200F003F800E0DF
:103BA000012016BDFEB506000F0014001D003100F7
:103BB00089B24FF48050414311FA87F001903800E8
:103BC00080B2082190FBF1F201FB1200002803D023
:103BD000E9212948FFF796FF380080B241F2010140
:103BE000884203DBEB212448FFF78CFF9DF8060099
:103BF0001E4908709DF805001D4908709DF80400D5
:103C00001C49087000949DF803001C4908709DF839
:103C100002001B4908709DF801001A4908709DF8C0
:103C200000001949087007200F49087000959DF899
:103C30000300164908709DF80200154908709DF8A8
:103C40000100144908709DF8000013490870FFF73F
:103C50005DFF002801D1002000E00120FEBD000032
:103C60000000024004F0014007000240060002404C
:103C70000500024004000240D83F00000B00024053
:103C80000A00024009000240080002400F00024002
:103C90000E0002400D0002400C00024070B4114CB6
:103CA0002468104D2D6855F47F050E4E35600D06C5
:103CB00015F0706555EA0075160516F47006354363
:103CC0001E0416F470263543074E356000252E007D
:103CD000F6B29E4201D26D1CF9E7024E346070BC10
:103CE000704700BF00F001404480044010B500F070
:103CF00083F83C4804680123002207210120FEF7D5
:103D0000A7FB220006210120FEF77FFC0FF2A10194
:103D1000352000F09AF806210120FEF72DFD3248EB
:103D200000780028FBD000202F4908702F48007829
:103D3000020012B200213220FFF7F8FA2B48407837
:103D4000020012B201213220FFF7F0FA27488078F2
:103D5000020012B202213220FFF7E8FA2348C078AD
:103D6000020012B203213220FFF7E0FA1F48007967
:103D7000020012B204213220FFF7D8FA1B48407922
:103D8000020012B205213220FFF7D0FA17488079DD
:103D9000020012B206213220FFF7C8FA1348C07998
:103DA000020012B207213220FFF7C0FAB7E7000085
:103DB00080B50E4800900E4B0E4A06210120FEF7FA
:103DC00065FC0B480078002803D0012006490870E4
:103DD00002E000200449087006210120FEF7E7FCFC
:103DE00001BD000038430000500B0014E00A00142D
:103DF000510B0014EC0A001480B50022012151205F
:103E0000FFF76EF8002201215020FFF769F8002229
:103E100001215320FFF764F8012201215220FFF70E
:103E20005FF8FFF7C4F901BD10B504004FF400704E
:103E300094FBF0F100FB1140002803D01E210C4838
:103E4000FEF7B7FD0B48046010BD38B504000D0047
:103E5000084800680849884203D030210448FEF72A
:103E6000A8FD0548210049B240F8215031BD0000AD
:103E70006C41000008ED00E00000FF1F80B500F07D
:103E800089F800F025F800F005F8FEF7AFFDFFF720
:103E90002DFFFEE780B50420FFF7B6FC2F49086030
:103EA0002E4801684FF47A7041432D4801602C4838
:103EB00000682C490968C1F30361491CB0FBF1F0AB
:103EC000294908605FF4E1310320FEF77FFE01BD60
:103ED0002DE9F0412548264988420CD000200400F5
:103EE000B4F5826F07D2224850F824001F4941F8E8
:103EF0002400641CF4E71D48FFF796FF1D4B1E4A83
:103F00001E498E1A3000461E002804D01078187002
:103F1000521C5B1CF6E71A4D1A4C671B3800471EF3
:103F2000002803D0002028706D1CF7E7DFF858C088
:103F3000DFF858E0DFF85880B8EB0E063000461E78
:103F4000002808D09EF800008CF800001EF1010E39
:103F50001CF1010CF2E7BDE8F0810000F40A001446
:103F6000F00A001444800440F80A00140000FF1F07
:103F70000000000000000014401B00003824000076
:103F8000E00A0014540B0014F8080014043B00006D
:103F9000EC3C000080B500F008F80D4801884FF6B1
:103FA000FE7001400A48018001BDEFF3118172B635
:103FB0004CF22050074A10804DF62810054A108018
:103FC0000800C0B2002800D162B6704700000000AF
:103FD000002005400E200540433A5C55736572731E
:103FE0005C4A616D6F726E5C4465765C49435CE56A
:103FF000889BE6848F323031385C4D323030362049
:104000006D6F746F725C43616E5C63616E5FE6AD91
:10401000A3E5B8B8E6A8A1E5BC8F5C63616E5FE874
:104020008A82E782B9425C436869705C7372635C40
:104030004D4B36305F666C6173682E630000000084
:10404000433A5C55736572735C4A616D6F726E5C66
:104050004465765C49435CE5889BE6848F32303169
:10406000385C4D32303036206D6F746F725C436156
:104070006E5C63616E5FE6ADA3E5B8B8E6A8A1E546
:10408000BC8F5C63616E5FE88A82E782B9425C4301
:104090006869705C7372635C4D4B36305F63616E50
:1040A0002E630000433A5C55736572735C4A616D20
:1040B0006F726E5C4465765C49435CE5889BE68480
:1040C0008F323031385C4D32303036206D6F746F46
:1040D000725C43616E5C63616E5FE6ADA3E5B8B888
:1040E000E6A8A1E5BC8F5C63616E5FE88A82E78227
:1040F000B9425C436869705C7372635C4D4B3630E7
:104100005F6770696F2E6300433A5C557365727325
:104110005C4A616D6F726E5C4465765C49435CE538
:10412000889BE6848F323031385C4D323030362017
:104130006D6F746F725C43616E5C63616E5FE6AD60
:10414000A3E5B8B8E6A8A1E5BC8F5C63616E5FE843
:104150008A82E782B9425C436869705C7372635C0F
:104160004D4B36305F756172742E6300433A5C5577
:10417000736572735C4A616D6F726E5C4465765CE8
:1041800049435CE5889BE6848F323031385C4D32A0
:10419000303036206D6F746F725C43616E5C6361AA
:1041A0006E5FE6ADA3E5B8B8E6A8A1E5BC8F5C6399
:1041B000616E5FE88A82E782B9425C436869705C3D
:1041C0007372635C6D6973632E63000019E050F8CD
:1041D000042BD30744BFA9F101039A18091F002338
:1041E000042942F8043BF9D25FEA817C134604D5E6
:1041F0004FF0000CA2F800C09B1CC90744BF00216F
:10420000197050F8041B0029E1D170470A2A2A2AA4
:104210002A64656661756C745F69737220656E747B
:1042200065726564206F6E20766563746F722025F9
:10423000642A2A2A2A2A0A0A257320496E7465727A
:10424000727570740000000010B507497944183188
:10425000064C7C44163404E00A68081D1144884763
:104260000146A142F8D110BD2C000000380000002A
:10427000417373657274696F6E206661696C656401
:1042800020696E202573206174206C696E6520257D
:10429000640A000039FFFFFF74000000E00A001408
:1042A000000000000ABDF8D0D0BDE2CBF8B2D9D7EB
:1042B000F7A3ACC7EBD6D8D0C2CBA2C8EBB9CCBC65
:1042C000FE00000000F00DF8002801D0FFF7BCFF51
:1042D000AFF300800020AFF30080FFF707FD00F090
:1042E00002F80120704700F001B800000746384688
:1042F000FDF720FCFBE738B504460D46284600F0E4
:1043000005F8A84218BF0024204632BD0149FEF737
:1043100063BB00BFB00800140ABDF8C8EBCBC0D126
:10432000ADBBB7B5C8B4FDA3A1000000AFF30080DA
:10433000AFF30080FFF7C6FF8500000000002E00ED
:040000050000432D87
:00000001FF
